{
  "contractName": "Administrator",
  "abi": [
    {
      "inputs": [],
      "stateMutability": "nonpayable",
      "type": "constructor"
    },
    {
      "anonymous": false,
      "inputs": [
        {
          "indexed": true,
          "internalType": "uint256",
          "name": "hospitalID",
          "type": "uint256"
        },
        {
          "indexed": true,
          "internalType": "address",
          "name": "oldDirector",
          "type": "address"
        },
        {
          "indexed": true,
          "internalType": "address",
          "name": "newDirector",
          "type": "address"
        }
      ],
      "name": "DirectorReplaced",
      "type": "event"
    },
    {
      "anonymous": false,
      "inputs": [
        {
          "indexed": false,
          "internalType": "string",
          "name": "_name",
          "type": "string"
        }
      ],
      "name": "createdHospital",
      "type": "event"
    },
    {
      "inputs": [
        {
          "internalType": "uint256",
          "name": "_id",
          "type": "uint256"
        }
      ],
      "name": "validHospitalID",
      "outputs": [
        {
          "internalType": "bool",
          "name": "",
          "type": "bool"
        }
      ],
      "stateMutability": "view",
      "type": "function",
      "constant": true
    },
    {
      "inputs": [
        {
          "internalType": "address",
          "name": "_target",
          "type": "address"
        }
      ],
      "name": "isDirector",
      "outputs": [
        {
          "internalType": "bool",
          "name": "",
          "type": "bool"
        }
      ],
      "stateMutability": "view",
      "type": "function",
      "constant": true
    },
    {
      "inputs": [
        {
          "internalType": "address",
          "name": "_director",
          "type": "address"
        }
      ],
      "name": "directorIndex",
      "outputs": [
        {
          "internalType": "uint256",
          "name": "",
          "type": "uint256"
        }
      ],
      "stateMutability": "view",
      "type": "function",
      "constant": true
    },
    {
      "inputs": [],
      "name": "getAdmin",
      "outputs": [
        {
          "internalType": "address",
          "name": "",
          "type": "address"
        }
      ],
      "stateMutability": "view",
      "type": "function",
      "constant": true
    },
    {
      "inputs": [
        {
          "internalType": "uint256",
          "name": "_id",
          "type": "uint256"
        },
        {
          "internalType": "string",
          "name": "_name",
          "type": "string"
        },
        {
          "internalType": "address",
          "name": "newDirectorAddress",
          "type": "address"
        }
      ],
      "name": "replaceDirector",
      "outputs": [],
      "stateMutability": "nonpayable",
      "type": "function"
    },
    {
      "inputs": [
        {
          "internalType": "string",
          "name": "_name",
          "type": "string"
        },
        {
          "internalType": "string",
          "name": "_location",
          "type": "string"
        },
        {
          "internalType": "address",
          "name": "_directorAddress",
          "type": "address"
        },
        {
          "internalType": "string",
          "name": "_directorName",
          "type": "string"
        }
      ],
      "name": "addHospital",
      "outputs": [],
      "stateMutability": "nonpayable",
      "type": "function"
    },
    {
      "inputs": [],
      "name": "getHospitals",
      "outputs": [
        {
          "components": [
            {
              "internalType": "uint256",
              "name": "id",
              "type": "uint256"
            },
            {
              "internalType": "string",
              "name": "name",
              "type": "string"
            },
            {
              "internalType": "string",
              "name": "location",
              "type": "string"
            },
            {
              "internalType": "address",
              "name": "directorAddress",
              "type": "address"
            },
            {
              "internalType": "string",
              "name": "directorName",
              "type": "string"
            }
          ],
          "internalType": "struct Administrator.Hospital[]",
          "name": "",
          "type": "tuple[]"
        }
      ],
      "stateMutability": "view",
      "type": "function",
      "constant": true
    },
    {
      "inputs": [
        {
          "internalType": "uint256",
          "name": "_id",
          "type": "uint256"
        }
      ],
      "name": "getHospital",
      "outputs": [
        {
          "components": [
            {
              "internalType": "uint256",
              "name": "id",
              "type": "uint256"
            },
            {
              "internalType": "string",
              "name": "name",
              "type": "string"
            },
            {
              "internalType": "string",
              "name": "location",
              "type": "string"
            },
            {
              "internalType": "address",
              "name": "directorAddress",
              "type": "address"
            },
            {
              "internalType": "string",
              "name": "directorName",
              "type": "string"
            }
          ],
          "internalType": "struct Administrator.Hospital",
          "name": "",
          "type": "tuple"
        }
      ],
      "stateMutability": "view",
      "type": "function",
      "constant": true
    },
    {
      "inputs": [
        {
          "internalType": "address",
          "name": "_directorAddress",
          "type": "address"
        }
      ],
      "name": "getDirector",
      "outputs": [
        {
          "components": [
            {
              "internalType": "string",
              "name": "name",
              "type": "string"
            },
            {
              "internalType": "address",
              "name": "walletAddress",
              "type": "address"
            },
            {
              "internalType": "uint256",
              "name": "hospital_id",
              "type": "uint256"
            }
          ],
          "internalType": "struct Administrator.Director",
          "name": "",
          "type": "tuple"
        }
      ],
      "stateMutability": "view",
      "type": "function",
      "constant": true
    }
  ],
  "bytecode": "0x608060405234801561001057600080fd5b50336000806101000a81548173ffffffffffffffffffffffffffffffffffffffff021916908373ffffffffffffffffffffffffffffffffffffffff160217905550611de8806100606000396000f3fe608060405234801561001057600080fd5b50600436106100935760003560e01c80636e9960c3116100665780636e9960c3146101325780638bb6a8d0146101505780639e861ae014610180578063a7470f9a1461019c578063f81fab9f146101cc57610093565b806304ab80fc146100985780631ae64aab146100c85780631aecb28b146100e45780631d5a85d814610102575b600080fd5b6100b260048036038101906100ad919061146b565b6101fc565b6040516100bf919061196d565b60405180910390f35b6100e260048036038101906100dd9190611568565b610347565b005b6100ec6107bc565b6040516100f991906118ce565b60405180910390f35b61011c6004803603810190610117919061146b565b610a31565b60405161012991906119b1565b60405180910390f35b61013a610b09565b60405161014791906118b3565b60405180910390f35b61016a6004803603810190610165919061153f565b610b32565b60405161017791906118f0565b60405180910390f35b61019a60048036038101906101959190611494565b610b60565b005b6101b660048036038101906101b1919061153f565b610eaf565b6040516101c3919061198f565b60405180910390f35b6101e660048036038101906101e1919061146b565b611133565b6040516101f391906118f0565b60405180910390f35b6102046112ba565b600360008373ffffffffffffffffffffffffffffffffffffffff1673ffffffffffffffffffffffffffffffffffffffff16815260200190815260200160002060405180606001604052908160008201805461025e90611b9c565b80601f016020809104026020016040519081016040528092919081815260200182805461028a90611b9c565b80156102d75780601f106102ac576101008083540402835291602001916102d7565b820191906000526020600020905b8154815290600101906020018083116102ba57829003601f168201915b505050505081526020016001820160009054906101000a900473ffffffffffffffffffffffffffffffffffffffff1673ffffffffffffffffffffffffffffffffffffffff1673ffffffffffffffffffffffffffffffffffffffff1681526020016002820154815250509050919050565b60008054906101000a900473ffffffffffffffffffffffffffffffffffffffff1673ffffffffffffffffffffffffffffffffffffffff163373ffffffffffffffffffffffffffffffffffffffff16146103d5576040517f08c379a00000000000000000000000000000000000000000000000000000000081526004016103cc9061192d565b60405180910390fd5b6103de83610b32565b61041d576040517f08c379a00000000000000000000000000000000000000000000000000000000081526004016104149061194d565b60405180910390fd5b6000600260018561042e9190611ade565b81548110610465577f4e487b7100000000000000000000000000000000000000000000000000000000600052603260045260246000fd5b906000526020600020906005020160030160009054906101000a900473ffffffffffffffffffffffffffffffffffffffff16905060006104a482610a31565b9050600060405180606001604052808681526020018573ffffffffffffffffffffffffffffffffffffffff16815260200187815250905080600360008673ffffffffffffffffffffffffffffffffffffffff1673ffffffffffffffffffffffffffffffffffffffff16815260200190815260200160002060008201518160000190805190602001906105379291906112f1565b5060208201518160010160006101000a81548173ffffffffffffffffffffffffffffffffffffffff021916908373ffffffffffffffffffffffffffffffffffffffff1602179055506040820151816002015590505083600260018861059c9190611ade565b815481106105d3577f4e487b7100000000000000000000000000000000000000000000000000000000600052603260045260246000fd5b906000526020600020906005020160030160006101000a81548173ffffffffffffffffffffffffffffffffffffffff021916908373ffffffffffffffffffffffffffffffffffffffff1602179055508460026001886106329190611ade565b81548110610669577f4e487b7100000000000000000000000000000000000000000000000000000000600052603260045260246000fd5b9060005260206000209060050201600401908051906020019061068d9291906112f1565b506000600360008573ffffffffffffffffffffffffffffffffffffffff1673ffffffffffffffffffffffffffffffffffffffff168152602001908152602001600020600201819055508360018381548110610711577f4e487b7100000000000000000000000000000000000000000000000000000000600052603260045260246000fd5b9060005260206000200160006101000a81548173ffffffffffffffffffffffffffffffffffffffff021916908373ffffffffffffffffffffffffffffffffffffffff1602179055508373ffffffffffffffffffffffffffffffffffffffff168373ffffffffffffffffffffffffffffffffffffffff16877fb6580b17425a7a77b06f83cf1137d5c15c287643f9cf623c2c90105c5cc7a22e60405160405180910390a4505050505050565b60606002805480602002602001604051908101604052809291908181526020016000905b82821015610a2857838290600052602060002090600502016040518060a00160405290816000820154815260200160018201805461081d90611b9c565b80601f016020809104026020016040519081016040528092919081815260200182805461084990611b9c565b80156108965780601f1061086b57610100808354040283529160200191610896565b820191906000526020600020905b81548152906001019060200180831161087957829003601f168201915b505050505081526020016002820180546108af90611b9c565b80601f01602080910402602001604051908101604052809291908181526020018280546108db90611b9c565b80156109285780601f106108fd57610100808354040283529160200191610928565b820191906000526020600020905b81548152906001019060200180831161090b57829003601f168201915b505050505081526020016003820160009054906101000a900473ffffffffffffffffffffffffffffffffffffffff1673ffffffffffffffffffffffffffffffffffffffff1673ffffffffffffffffffffffffffffffffffffffff16815260200160048201805461099790611b9c565b80601f01602080910402602001604051908101604052809291908181526020018280546109c390611b9c565b8015610a105780601f106109e557610100808354040283529160200191610a10565b820191906000526020600020905b8154815290600101906020018083116109f357829003601f168201915b505050505081525050815260200190600101906107e0565b50505050905090565b600080600090505b600180549050811015610afa578273ffffffffffffffffffffffffffffffffffffffff1660018281548110610a97577f4e487b7100000000000000000000000000000000000000000000000000000000600052603260045260246000fd5b9060005260206000200160009054906101000a900473ffffffffffffffffffffffffffffffffffffffff1673ffffffffffffffffffffffffffffffffffffffff161415610ae75780915050610b04565b8080610af290611bff565b915050610a39565b5060018054905090505b919050565b60008060009054906101000a900473ffffffffffffffffffffffffffffffffffffffff16905090565b60008082118015610b4857506002805490508211155b15610b565760019050610b5b565b600090505b919050565b60008054906101000a900473ffffffffffffffffffffffffffffffffffffffff1673ffffffffffffffffffffffffffffffffffffffff163373ffffffffffffffffffffffffffffffffffffffff1614610bee576040517f08c379a0000000000000000000000000000000000000000000000000000000008152600401610be59061192d565b60405180910390fd5b600060405180606001604052808381526020018473ffffffffffffffffffffffffffffffffffffffff1681526020016001600280549050610c2f9190611a88565b815250905080600360008573ffffffffffffffffffffffffffffffffffffffff1673ffffffffffffffffffffffffffffffffffffffff1681526020019081526020016000206000820151816000019080519060200190610c909291906112f1565b5060208201518160010160006101000a81548173ffffffffffffffffffffffffffffffffffffffff021916908373ffffffffffffffffffffffffffffffffffffffff160217905550604082015181600201559050506001839080600181540180825580915050600190039060005260206000200160009091909190916101000a81548173ffffffffffffffffffffffffffffffffffffffff021916908373ffffffffffffffffffffffffffffffffffffffff16021790555060006040518060a001604052806001600280549050610d679190611a88565b81526020018781526020018681526020018573ffffffffffffffffffffffffffffffffffffffff1681526020018481525090506002819080600181540180825580915050600190039060005260206000209060050201600090919091909150600082015181600001556020820151816001019080519060200190610dec9291906112f1565b506040820151816002019080519060200190610e099291906112f1565b5060608201518160030160006101000a81548173ffffffffffffffffffffffffffffffffffffffff021916908373ffffffffffffffffffffffffffffffffffffffff1602179055506080820151816004019080519060200190610e6d9291906112f1565b5050507fa3cd7c0ff1e73e2bbde7e3a07ef86943a06e32248fd8e693c50362b19efd7afe86604051610e9f919061190b565b60405180910390a1505050505050565b610eb7611377565b6002600183610ec69190611ade565b81548110610efd577f4e487b7100000000000000000000000000000000000000000000000000000000600052603260045260246000fd5b90600052602060002090600502016040518060a001604052908160008201548152602001600182018054610f3090611b9c565b80601f0160208091040260200160405190810160405280929190818152602001828054610f5c90611b9c565b8015610fa95780601f10610f7e57610100808354040283529160200191610fa9565b820191906000526020600020905b815481529060010190602001808311610f8c57829003601f168201915b50505050508152602001600282018054610fc290611b9c565b80601f0160208091040260200160405190810160405280929190818152602001828054610fee90611b9c565b801561103b5780601f106110105761010080835404028352916020019161103b565b820191906000526020600020905b81548152906001019060200180831161101e57829003601f168201915b505050505081526020016003820160009054906101000a900473ffffffffffffffffffffffffffffffffffffffff1673ffffffffffffffffffffffffffffffffffffffff1673ffffffffffffffffffffffffffffffffffffffff1681526020016004820180546110aa90611b9c565b80601f01602080910402602001604051908101604052809291908181526020018280546110d690611b9c565b80156111235780601f106110f857610100808354040283529160200191611123565b820191906000526020600020905b81548152906001019060200180831161110657829003601f168201915b5050505050815250509050919050565b600080600090505b6001805490508110156112af578273ffffffffffffffffffffffffffffffffffffffff1660018281548110611199577f4e487b7100000000000000000000000000000000000000000000000000000000600052603260045260246000fd5b9060005260206000200160009054906101000a900473ffffffffffffffffffffffffffffffffffffffff1673ffffffffffffffffffffffffffffffffffffffff1614801561128d575060006003600060018481548110611222577f4e487b7100000000000000000000000000000000000000000000000000000000600052603260045260246000fd5b9060005260206000200160009054906101000a900473ffffffffffffffffffffffffffffffffffffffff1673ffffffffffffffffffffffffffffffffffffffff1673ffffffffffffffffffffffffffffffffffffffff16815260200190815260200160002060020154115b1561129c5760019150506112b5565b80806112a790611bff565b91505061113b565b50600090505b919050565b604051806060016040528060608152602001600073ffffffffffffffffffffffffffffffffffffffff168152602001600081525090565b8280546112fd90611b9c565b90600052602060002090601f01602090048101928261131f5760008555611366565b82601f1061133857805160ff1916838001178555611366565b82800160010185558215611366579182015b8281111561136557825182559160200191906001019061134a565b5b50905061137391906113bc565b5090565b6040518060a00160405280600081526020016060815260200160608152602001600073ffffffffffffffffffffffffffffffffffffffff168152602001606081525090565b5b808211156113d55760008160009055506001016113bd565b5090565b60006113ec6113e7846119f1565b6119cc565b90508281526020810184848401111561140457600080fd5b61140f848285611b5a565b509392505050565b60008135905061142681611d84565b92915050565b600082601f83011261143d57600080fd5b813561144d8482602086016113d9565b91505092915050565b60008135905061146581611d9b565b92915050565b60006020828403121561147d57600080fd5b600061148b84828501611417565b91505092915050565b600080600080608085870312156114aa57600080fd5b600085013567ffffffffffffffff8111156114c457600080fd5b6114d08782880161142c565b945050602085013567ffffffffffffffff8111156114ed57600080fd5b6114f98782880161142c565b935050604061150a87828801611417565b925050606085013567ffffffffffffffff81111561152757600080fd5b6115338782880161142c565b91505092959194509250565b60006020828403121561155157600080fd5b600061155f84828501611456565b91505092915050565b60008060006060848603121561157d57600080fd5b600061158b86828701611456565b935050602084013567ffffffffffffffff8111156115a857600080fd5b6115b48682870161142c565b92505060406115c586828701611417565b9150509250925092565b60006115db838361178d565b905092915050565b6115ec81611b12565b82525050565b6115fb81611b12565b82525050565b600061160c82611a32565b6116168185611a55565b93508360208202850161162885611a22565b8060005b85811015611664578484038952815161164585826115cf565b945061165083611a48565b925060208a0199505060018101905061162c565b50829750879550505050505092915050565b61167f81611b24565b82525050565b600061169082611a3d565b61169a8185611a66565b93506116aa818560208601611b69565b6116b381611cd5565b840191505092915050565b60006116c982611a3d565b6116d38185611a77565b93506116e3818560208601611b69565b6116ec81611cd5565b840191505092915050565b6000611704602383611a77565b915061170f82611ce6565b604082019050919050565b6000611727602b83611a77565b915061173282611d35565b604082019050919050565b6000606083016000830151848203600086015261175a8282611685565b915050602083015161176f60208601826115e3565b5060408301516117826040860182611895565b508091505092915050565b600060a0830160008301516117a56000860182611895565b50602083015184820360208601526117bd8282611685565b915050604083015184820360408601526117d78282611685565b91505060608301516117ec60608601826115e3565b50608083015184820360808601526118048282611685565b9150508091505092915050565b600060a0830160008301516118296000860182611895565b50602083015184820360208601526118418282611685565b9150506040830151848203604086015261185b8282611685565b915050606083015161187060608601826115e3565b50608083015184820360808601526118888282611685565b9150508091505092915050565b61189e81611b50565b82525050565b6118ad81611b50565b82525050565b60006020820190506118c860008301846115f2565b92915050565b600060208201905081810360008301526118e88184611601565b905092915050565b60006020820190506119056000830184611676565b92915050565b6000602082019050818103600083015261192581846116be565b905092915050565b60006020820190508181036000830152611946816116f7565b9050919050565b600060208201905081810360008301526119668161171a565b9050919050565b60006020820190508181036000830152611987818461173d565b905092915050565b600060208201905081810360008301526119a98184611811565b905092915050565b60006020820190506119c660008301846118a4565b92915050565b60006119d66119e7565b90506119e28282611bce565b919050565b6000604051905090565b600067ffffffffffffffff821115611a0c57611a0b611ca6565b5b611a1582611cd5565b9050602081019050919050565b6000819050602082019050919050565b600081519050919050565b600081519050919050565b6000602082019050919050565b600082825260208201905092915050565b600082825260208201905092915050565b600082825260208201905092915050565b6000611a9382611b50565b9150611a9e83611b50565b9250827fffffffffffffffffffffffffffffffffffffffffffffffffffffffffffffffff03821115611ad357611ad2611c48565b5b828201905092915050565b6000611ae982611b50565b9150611af483611b50565b925082821015611b0757611b06611c48565b5b828203905092915050565b6000611b1d82611b30565b9050919050565b60008115159050919050565b600073ffffffffffffffffffffffffffffffffffffffff82169050919050565b6000819050919050565b82818337600083830152505050565b60005b83811015611b87578082015181840152602081019050611b6c565b83811115611b96576000848401525b50505050565b60006002820490506001821680611bb457607f821691505b60208210811415611bc857611bc7611c77565b5b50919050565b611bd782611cd5565b810181811067ffffffffffffffff82111715611bf657611bf5611ca6565b5b80604052505050565b6000611c0a82611b50565b91507fffffffffffffffffffffffffffffffffffffffffffffffffffffffffffffffff821415611c3d57611c3c611c48565b5b600182019050919050565b7f4e487b7100000000000000000000000000000000000000000000000000000000600052601160045260246000fd5b7f4e487b7100000000000000000000000000000000000000000000000000000000600052602260045260246000fd5b7f4e487b7100000000000000000000000000000000000000000000000000000000600052604160045260246000fd5b6000601f19601f8301169050919050565b7f43616c6c65722073686f756c6420626520686f73706974616c2064697265637460008201527f6f72210000000000000000000000000000000000000000000000000000000000602082015250565b7f4e6f207265676973746572656420686f73706974616c2077697468207468652060008201527f70726f7669646564204944000000000000000000000000000000000000000000602082015250565b611d8d81611b12565b8114611d9857600080fd5b50565b611da481611b50565b8114611daf57600080fd5b5056fea2646970667358221220e2c0ca9e3deb3064dbbdd1336e8319ef3ad530b50511d61712f618f59afe549e64736f6c63430008020033",
  "immutableReferences": {},
  "source": "// SPDX-License-Identifier: MIT\npragma solidity ^0.8.2;\npragma experimental ABIEncoderV2;\n\ncontract Administrator{\n\n    \n\n    struct Hospital{\n        uint id;\n        string name;\n        string location;\n        address directorAddress;\n        string directorName;\n    }\n\n    struct Director{\n        string name;\n        address walletAddress;\n        uint hospital_id;  //0 if he is removed \n    }\n\n    \n\n    address admin; //supposed to be an employee in the health ministry\n    \n    address[] Directors;\n    Hospital[] Hospitals;\n\n    mapping(address => Director) directors;\n    \n\n\n\n    // constructor\n    constructor() public {\n        admin = msg.sender;\n    }\n\n    event DirectorReplaced(uint indexed hospitalID, address indexed oldDirector, address indexed newDirector);\n\n    modifier OnlyAdmin() {\n        require (msg.sender == admin,'Caller should be hospital director!');\n        _;\n    }\n    \n\n    function validHospitalID(uint _id) public view returns (bool){\n        if (_id>0 && _id<=Hospitals.length){\n            return true;\n        }\n        else{\n            return false;\n        }\n    }\n\n    // function to see if an address belongs to a director\n    function isDirector(address _target) public view returns (bool) {\n        for (uint i=0; i<Directors.length; i++){\n            if(Directors[i] == _target && directors[Directors[i]].hospital_id>0){\n                return true;\n            }\n        }\n        return false;\n    }\n\n\n    \n    //function to find director index in Directors given his address\n    function directorIndex(address _director) public view returns(uint) {\n        for (uint i=0; i<Directors.length; i++){\n            if (Directors[i] == _director){\n                return i;\n            }\n        }\n        return Directors.length;\n    }\n\n    function getAdmin() public view returns (address){\n        return admin;\n    }\n\n    \n    \n    \n    //                      functions of the admin\n    \n    \n    //function to replace a director with another one\n    function replaceDirector(uint _id, string memory _name, address newDirectorAddress) public OnlyAdmin {\n        require(validHospitalID(_id),\"No registered hospital with the provided ID\");\n        address oldDirector = Hospitals[_id-1].directorAddress;  //save address of the ancient director for event emission\n        uint index = directorIndex(oldDirector); //his index in the array of Directors\n        Director memory newDirector = Director(_name, newDirectorAddress, _id); //instantiate the new director\n        directors[newDirectorAddress] = newDirector; //add new director to the mapping of dircetors \n        Hospitals[_id-1].directorAddress = newDirectorAddress; //update the director address of the hospital\n        Hospitals[_id-1].directorName = _name;\n        directors[oldDirector].hospital_id = 0;  //set hospital ID of ancient director to 0 as he no longer works there\n        Directors[index] = newDirectorAddress; //add the new director to the array\n        \n        emit DirectorReplaced(_id, oldDirector, newDirectorAddress); //emit the event of replacement\n    }\n\n\n\n    //event of hospital creation\n    event createdHospital(string _name);\n\n\n\n    //function to add a hospital and appoint a director to it\n    function addHospital(string memory _name, string memory _location, address _directorAddress, string memory _directorName) public OnlyAdmin{\n        Director memory newDirector = Director(_directorName, _directorAddress, Hospitals.length + 1);  //instantiate the new director\n        directors[_directorAddress] = newDirector; //add the new director to the mapping of directors\n        Directors.push (_directorAddress);\n        Hospital memory newHospital = Hospital(Hospitals.length+1, _name, _location, _directorAddress, _directorName);   // instantiate the new hospital\n        Hospitals.push(newHospital);\n        emit createdHospital(_name);\n    }\n\n\n    //function to get the hospitals array\n    function getHospitals() public view returns(Hospital[] memory){\n        return Hospitals;\n    } \n\n    function getHospital(uint _id) public view returns(Hospital memory){\n        return Hospitals[_id - 1];\n    }\n\n    //function to get all the directors\n    function getDirector(address _directorAddress) public view returns(Director memory){\n        return directors[_directorAddress];\n    }    \n    \n}\n\n\n",
  "sourcePath": "/home/amine/Downloads/2_eme/S2/PCD/projet/truffle/contracts/Admin.sol",
  "compiler": {
    "name": "solc",
    "version": "0.8.2+commit.661d1103.Emscripten.clang"
  },
  "schemaVersion": "3.4.16",
  "updatedAt": "2024-05-06T15:26:15.106Z",
  "networkType": "ethereum",
  "devdoc": {
    "kind": "dev",
    "methods": {},
    "version": 1
  },
  "userdoc": {
    "kind": "user",
    "methods": {},
    "version": 1
  }
}