{
  "contractName": "Director",
  "abi": [
    {
      "inputs": [
        {
          "internalType": "address[]",
          "name": "addressesArray",
          "type": "address[]"
        },
        {
          "internalType": "address",
          "name": "addressToRemove",
          "type": "address"
        }
      ],
      "name": "removeAddressFromArray",
      "outputs": [
        {
          "internalType": "address[]",
          "name": "",
          "type": "address[]"
        }
      ],
      "stateMutability": "pure",
      "type": "function",
      "constant": true
    },
    {
      "inputs": [
        {
          "internalType": "address",
          "name": "_target",
          "type": "address"
        }
      ],
      "name": "isDoctor",
      "outputs": [
        {
          "internalType": "bool",
          "name": "",
          "type": "bool"
        }
      ],
      "stateMutability": "view",
      "type": "function",
      "constant": true
    },
    {
      "inputs": [
        {
          "internalType": "address",
          "name": "_target",
          "type": "address"
        }
      ],
      "name": "isReceptionist",
      "outputs": [
        {
          "internalType": "bool",
          "name": "",
          "type": "bool"
        }
      ],
      "stateMutability": "view",
      "type": "function",
      "constant": true
    },
    {
      "inputs": [
        {
          "internalType": "address",
          "name": "_walletAddress",
          "type": "address"
        },
        {
          "internalType": "string",
          "name": "_name",
          "type": "string"
        },
        {
          "internalType": "string",
          "name": "_specialty",
          "type": "string"
        },
        {
          "internalType": "uint256",
          "name": "_age",
          "type": "uint256"
        },
        {
          "internalType": "uint256",
          "name": "_hospital_id",
          "type": "uint256"
        }
      ],
      "name": "addDoctor",
      "outputs": [],
      "stateMutability": "nonpayable",
      "type": "function"
    },
    {
      "inputs": [
        {
          "internalType": "address",
          "name": "_walletAddress",
          "type": "address"
        },
        {
          "internalType": "string",
          "name": "_name",
          "type": "string"
        },
        {
          "internalType": "uint256",
          "name": "_hospital_id",
          "type": "uint256"
        }
      ],
      "name": "addReceptionist",
      "outputs": [],
      "stateMutability": "nonpayable",
      "type": "function"
    },
    {
      "inputs": [
        {
          "internalType": "address",
          "name": "_directorAddress",
          "type": "address"
        }
      ],
      "name": "getDoctors",
      "outputs": [
        {
          "components": [
            {
              "internalType": "uint256",
              "name": "id",
              "type": "uint256"
            },
            {
              "internalType": "address",
              "name": "walletAddress",
              "type": "address"
            },
            {
              "internalType": "string",
              "name": "name",
              "type": "string"
            },
            {
              "internalType": "string",
              "name": "specialty",
              "type": "string"
            },
            {
              "internalType": "uint256",
              "name": "hospital_id",
              "type": "uint256"
            },
            {
              "internalType": "uint256",
              "name": "age",
              "type": "uint256"
            },
            {
              "internalType": "address[]",
              "name": "pendingRequests",
              "type": "address[]"
            },
            {
              "internalType": "address[]",
              "name": "patientsList",
              "type": "address[]"
            },
            {
              "internalType": "address[]",
              "name": "patientsRequests",
              "type": "address[]"
            }
          ],
          "internalType": "struct Director.Doctor[]",
          "name": "",
          "type": "tuple[]"
        }
      ],
      "stateMutability": "view",
      "type": "function",
      "constant": true
    },
    {
      "inputs": [
        {
          "internalType": "address",
          "name": "_directorAddress",
          "type": "address"
        }
      ],
      "name": "getReceptionists",
      "outputs": [
        {
          "components": [
            {
              "internalType": "uint256",
              "name": "id",
              "type": "uint256"
            },
            {
              "internalType": "address",
              "name": "receptionistWallet",
              "type": "address"
            },
            {
              "internalType": "string",
              "name": "name",
              "type": "string"
            },
            {
              "internalType": "uint256",
              "name": "hospital_id",
              "type": "uint256"
            }
          ],
          "internalType": "struct Director.Receptionist[]",
          "name": "",
          "type": "tuple[]"
        }
      ],
      "stateMutability": "view",
      "type": "function",
      "constant": true
    },
    {
      "inputs": [
        {
          "internalType": "address",
          "name": "_doctorAddress",
          "type": "address"
        }
      ],
      "name": "getDoctor",
      "outputs": [
        {
          "components": [
            {
              "internalType": "uint256",
              "name": "id",
              "type": "uint256"
            },
            {
              "internalType": "address",
              "name": "walletAddress",
              "type": "address"
            },
            {
              "internalType": "string",
              "name": "name",
              "type": "string"
            },
            {
              "internalType": "string",
              "name": "specialty",
              "type": "string"
            },
            {
              "internalType": "uint256",
              "name": "hospital_id",
              "type": "uint256"
            },
            {
              "internalType": "uint256",
              "name": "age",
              "type": "uint256"
            },
            {
              "internalType": "address[]",
              "name": "pendingRequests",
              "type": "address[]"
            },
            {
              "internalType": "address[]",
              "name": "patientsList",
              "type": "address[]"
            },
            {
              "internalType": "address[]",
              "name": "patientsRequests",
              "type": "address[]"
            }
          ],
          "internalType": "struct Director.Doctor",
          "name": "",
          "type": "tuple"
        }
      ],
      "stateMutability": "view",
      "type": "function",
      "constant": true
    },
    {
      "inputs": [
        {
          "internalType": "address",
          "name": "_receptionistAddress",
          "type": "address"
        }
      ],
      "name": "getReceptionist",
      "outputs": [
        {
          "components": [
            {
              "internalType": "uint256",
              "name": "id",
              "type": "uint256"
            },
            {
              "internalType": "address",
              "name": "receptionistWallet",
              "type": "address"
            },
            {
              "internalType": "string",
              "name": "name",
              "type": "string"
            },
            {
              "internalType": "uint256",
              "name": "hospital_id",
              "type": "uint256"
            }
          ],
          "internalType": "struct Director.Receptionist",
          "name": "",
          "type": "tuple"
        }
      ],
      "stateMutability": "view",
      "type": "function",
      "constant": true
    },
    {
      "inputs": [
        {
          "internalType": "address",
          "name": "_doctorAddress",
          "type": "address"
        },
        {
          "internalType": "address",
          "name": "_patientAddress",
          "type": "address"
        }
      ],
      "name": "pending",
      "outputs": [
        {
          "internalType": "bool",
          "name": "",
          "type": "bool"
        }
      ],
      "stateMutability": "view",
      "type": "function",
      "constant": true
    },
    {
      "inputs": [
        {
          "internalType": "address",
          "name": "_doctorAddress",
          "type": "address"
        },
        {
          "internalType": "address",
          "name": "_patientAddress",
          "type": "address"
        }
      ],
      "name": "received",
      "outputs": [
        {
          "internalType": "bool",
          "name": "",
          "type": "bool"
        }
      ],
      "stateMutability": "view",
      "type": "function",
      "constant": true
    },
    {
      "inputs": [
        {
          "internalType": "address",
          "name": "_doctorAddress",
          "type": "address"
        },
        {
          "internalType": "address",
          "name": "_patientAddress",
          "type": "address"
        }
      ],
      "name": "isMyPatient",
      "outputs": [
        {
          "internalType": "bool",
          "name": "",
          "type": "bool"
        }
      ],
      "stateMutability": "view",
      "type": "function",
      "constant": true
    },
    {
      "inputs": [
        {
          "internalType": "address",
          "name": "doctor",
          "type": "address"
        },
        {
          "internalType": "address",
          "name": "patient",
          "type": "address"
        }
      ],
      "name": "acceptPatient",
      "outputs": [],
      "stateMutability": "nonpayable",
      "type": "function"
    },
    {
      "inputs": [
        {
          "internalType": "address",
          "name": "doctor",
          "type": "address"
        },
        {
          "internalType": "address",
          "name": "patient",
          "type": "address"
        }
      ],
      "name": "rejectPatient",
      "outputs": [],
      "stateMutability": "nonpayable",
      "type": "function"
    },
    {
      "inputs": [
        {
          "internalType": "address",
          "name": "doctor",
          "type": "address"
        },
        {
          "internalType": "address",
          "name": "patient",
          "type": "address"
        }
      ],
      "name": "doctorWithdrew",
      "outputs": [],
      "stateMutability": "nonpayable",
      "type": "function"
    },
    {
      "inputs": [
        {
          "internalType": "address",
          "name": "_doctor",
          "type": "address"
        },
        {
          "internalType": "address",
          "name": "_patient",
          "type": "address"
        }
      ],
      "name": "accessRequest",
      "outputs": [],
      "stateMutability": "nonpayable",
      "type": "function"
    }
  ],
  "bytecode": "0x608060405234801561001057600080fd5b5061322c806100206000396000f3fe608060405234801561001057600080fd5b50600436106101005760003560e01c806386bed60611610097578063ac368c1811610066578063ac368c1814610309578063e8b5e67f14610339578063f20957ab14610355578063ff37f8b81461037157610100565b806386bed606146102715780638eac0fec1461028d578063996440c6146102bd5780639ca95f9b146102ed57610100565b8063468a1854116100d3578063468a1854146101c5578063518ec8ab146101f5578063700af05a146102255780637b6437a21461024157610100565b806319bc9ae8146101055780632da451a5146101355780632f04e0641461016557806345ff292314610195575b600080fd5b61011f600480360381019061011a91906126d9565b61038d565b60405161012c9190612db1565b60405180910390f35b61014f600480360381019061014a91906126b0565b6104e3565b60405161015c9190612d6d565b60405180910390f35b61017f600480360381019061017a91906126b0565b6108c3565b60405161018c9190612dcc565b60405180910390f35b6101af60048036038101906101aa91906126b0565b610c5f565b6040516101bc9190612dee565b60405180910390f35b6101df60048036038101906101da91906126d9565b610db4565b6040516101ec9190612db1565b60405180910390f35b61020f600480360381019061020a91906126b0565b610f0a565b60405161021c9190612d8f565b60405180910390f35b61023f600480360381019061023a91906126d9565b6110a4565b005b61025b60048036038101906102569190612823565b611271565b6040516102689190612d4b565b60405180910390f35b61028b60048036038101906102869190612715565b611579565b005b6102a760048036038101906102a291906126d9565b611a6f565b6040516102b49190612db1565b60405180910390f35b6102d760048036038101906102d291906126b0565b611bc5565b6040516102e49190612db1565b60405180910390f35b610307600480360381019061030291906127bc565b611c9a565b005b610323600480360381019061031e91906126b0565b611feb565b6040516103309190612db1565b60405180910390f35b610353600480360381019061034e91906126d9565b6120c0565b005b61036f600480360381019061036a91906126d9565b6121ea565b005b61038b600480360381019061038691906126d9565b612314565b005b600080600090505b600460008573ffffffffffffffffffffffffffffffffffffffff1673ffffffffffffffffffffffffffffffffffffffff168152602001908152602001600020600601805490508110156104d7578273ffffffffffffffffffffffffffffffffffffffff16600460008673ffffffffffffffffffffffffffffffffffffffff1673ffffffffffffffffffffffffffffffffffffffff1681526020019081526020016000206006018281548110610473577f4e487b7100000000000000000000000000000000000000000000000000000000600052603260045260246000fd5b9060005260206000200160009054906101000a900473ffffffffffffffffffffffffffffffffffffffff1673ffffffffffffffffffffffffffffffffffffffff1614156104c45760019150506104dd565b80806104cf906130e1565b915050610395565b50600090505b92915050565b60606000808373ffffffffffffffffffffffffffffffffffffffff1673ffffffffffffffffffffffffffffffffffffffff168152602001908152602001600020805480602002602001604051908101604052809291908181526020016000905b828210156108b8578382906000526020600020906009020160405180610120016040529081600082015481526020016001820160009054906101000a900473ffffffffffffffffffffffffffffffffffffffff1673ffffffffffffffffffffffffffffffffffffffff1673ffffffffffffffffffffffffffffffffffffffff1681526020016002820180546105d79061307e565b80601f01602080910402602001604051908101604052809291908181526020018280546106039061307e565b80156106505780601f1061062557610100808354040283529160200191610650565b820191906000526020600020905b81548152906001019060200180831161063357829003601f168201915b505050505081526020016003820180546106699061307e565b80601f01602080910402602001604051908101604052809291908181526020018280546106959061307e565b80156106e25780601f106106b7576101008083540402835291602001916106e2565b820191906000526020600020905b8154815290600101906020018083116106c557829003601f168201915b5050505050815260200160048201548152602001600582015481526020016006820180548060200260200160405190810160405280929190818152602001828054801561078457602002820191906000526020600020905b8160009054906101000a900473ffffffffffffffffffffffffffffffffffffffff1673ffffffffffffffffffffffffffffffffffffffff168152602001906001019080831161073a575b505050505081526020016007820180548060200260200160405190810160405280929190818152602001828054801561081257602002820191906000526020600020905b8160009054906101000a900473ffffffffffffffffffffffffffffffffffffffff1673ffffffffffffffffffffffffffffffffffffffff16815260200190600101908083116107c8575b50505050508152602001600882018054806020026020016040519081016040528092919081815260200182805480156108a057602002820191906000526020600020905b8160009054906101000a900473ffffffffffffffffffffffffffffffffffffffff1673ffffffffffffffffffffffffffffffffffffffff1681526020019060010190808311610856575b50505050508152505081526020019060010190610543565b505050509050919050565b6108cb6123bb565b600460008373ffffffffffffffffffffffffffffffffffffffff1673ffffffffffffffffffffffffffffffffffffffff16815260200190815260200160002060405180610120016040529081600082015481526020016001820160009054906101000a900473ffffffffffffffffffffffffffffffffffffffff1673ffffffffffffffffffffffffffffffffffffffff1673ffffffffffffffffffffffffffffffffffffffff1681526020016002820180546109869061307e565b80601f01602080910402602001604051908101604052809291908181526020018280546109b29061307e565b80156109ff5780601f106109d4576101008083540402835291602001916109ff565b820191906000526020600020905b8154815290600101906020018083116109e257829003601f168201915b50505050508152602001600382018054610a189061307e565b80601f0160208091040260200160405190810160405280929190818152602001828054610a449061307e565b8015610a915780601f10610a6657610100808354040283529160200191610a91565b820191906000526020600020905b815481529060010190602001808311610a7457829003601f168201915b50505050508152602001600482015481526020016005820154815260200160068201805480602002602001604051908101604052809291908181526020018280548015610b3357602002820191906000526020600020905b8160009054906101000a900473ffffffffffffffffffffffffffffffffffffffff1673ffffffffffffffffffffffffffffffffffffffff1681526020019060010190808311610ae9575b5050505050815260200160078201805480602002602001604051908101604052809291908181526020018280548015610bc157602002820191906000526020600020905b8160009054906101000a900473ffffffffffffffffffffffffffffffffffffffff1673ffffffffffffffffffffffffffffffffffffffff1681526020019060010190808311610b77575b5050505050815260200160088201805480602002602001604051908101604052809291908181526020018280548015610c4f57602002820191906000526020600020905b8160009054906101000a900473ffffffffffffffffffffffffffffffffffffffff1673ffffffffffffffffffffffffffffffffffffffff1681526020019060010190808311610c05575b5050505050815250509050919050565b610c6761241d565b600560008373ffffffffffffffffffffffffffffffffffffffff1673ffffffffffffffffffffffffffffffffffffffff168152602001908152602001600020604051806080016040529081600082015481526020016001820160009054906101000a900473ffffffffffffffffffffffffffffffffffffffff1673ffffffffffffffffffffffffffffffffffffffff1673ffffffffffffffffffffffffffffffffffffffff168152602001600282018054610d219061307e565b80601f0160208091040260200160405190810160405280929190818152602001828054610d4d9061307e565b8015610d9a5780601f10610d6f57610100808354040283529160200191610d9a565b820191906000526020600020905b815481529060010190602001808311610d7d57829003601f168201915b505050505081526020016003820154815250509050919050565b600080600090505b600460008573ffffffffffffffffffffffffffffffffffffffff1673ffffffffffffffffffffffffffffffffffffffff16815260200190815260200160002060070180549050811015610efe578273ffffffffffffffffffffffffffffffffffffffff16600460008673ffffffffffffffffffffffffffffffffffffffff1673ffffffffffffffffffffffffffffffffffffffff1681526020019081526020016000206007018281548110610e9a577f4e487b7100000000000000000000000000000000000000000000000000000000600052603260045260246000fd5b9060005260206000200160009054906101000a900473ffffffffffffffffffffffffffffffffffffffff1673ffffffffffffffffffffffffffffffffffffffff161415610eeb576001915050610f04565b8080610ef6906130e1565b915050610dbc565b50600090505b92915050565b6060600160008373ffffffffffffffffffffffffffffffffffffffff1673ffffffffffffffffffffffffffffffffffffffff168152602001908152602001600020805480602002602001604051908101604052809291908181526020016000905b828210156110995783829060005260206000209060040201604051806080016040529081600082015481526020016001820160009054906101000a900473ffffffffffffffffffffffffffffffffffffffff1673ffffffffffffffffffffffffffffffffffffffff1673ffffffffffffffffffffffffffffffffffffffff168152602001600282018054610ffe9061307e565b80601f016020809104026020016040519081016040528092919081815260200182805461102a9061307e565b80156110775780601f1061104c57610100808354040283529160200191611077565b820191906000526020600020905b81548152906001019060200180831161105a57829003601f168201915b5050505050815260200160038201548152505081526020019060010190610f6b565b505050509050919050565b600460008373ffffffffffffffffffffffffffffffffffffffff1673ffffffffffffffffffffffffffffffffffffffff168152602001908152602001600020600701819080600181540180825580915050600190039060005260206000200160009091909190916101000a81548173ffffffffffffffffffffffffffffffffffffffff021916908373ffffffffffffffffffffffffffffffffffffffff160217905550611217600460008473ffffffffffffffffffffffffffffffffffffffff1673ffffffffffffffffffffffffffffffffffffffff16815260200190815260200160002060080180548060200260200160405190810160405280929190818152602001828054801561120c57602002820191906000526020600020905b8160009054906101000a900473ffffffffffffffffffffffffffffffffffffffff1673ffffffffffffffffffffffffffffffffffffffff16815260200190600101908083116111c2575b505050505082611271565b600460008473ffffffffffffffffffffffffffffffffffffffff1673ffffffffffffffffffffffffffffffffffffffff168152602001908152602001600020600801908051906020019061126c92919061245b565b505050565b606060008351905060008060005b8381101561131a578573ffffffffffffffffffffffffffffffffffffffff168782815181106112d7577f4e487b7100000000000000000000000000000000000000000000000000000000600052603260045260246000fd5b602002602001015173ffffffffffffffffffffffffffffffffffffffff161415611307578092506001915061131a565b8080611312906130e1565b91505061127f565b508061132b57859350505050611573565b600060018461133a9190612fc0565b67ffffffffffffffff811115611379577f4e487b7100000000000000000000000000000000000000000000000000000000600052604160045260246000fd5b6040519080825280602002602001820160405280156113a75781602001602082028036833780820191505090505b50905060005b8381101561147c578781815181106113ee577f4e487b7100000000000000000000000000000000000000000000000000000000600052603260045260246000fd5b602002602001015182828151811061142f577f4e487b7100000000000000000000000000000000000000000000000000000000600052603260045260246000fd5b602002602001019073ffffffffffffffffffffffffffffffffffffffff16908173ffffffffffffffffffffffffffffffffffffffff16815250508080611474906130e1565b9150506113ad565b50600060018461148c9190612f6a565b90505b8481101561156a578781815181106114d0577f4e487b7100000000000000000000000000000000000000000000000000000000600052603260045260246000fd5b6020026020010151826001836114e69190612fc0565b8151811061151d577f4e487b7100000000000000000000000000000000000000000000000000000000600052603260045260246000fd5b602002602001019073ffffffffffffffffffffffffffffffffffffffff16908173ffffffffffffffffffffffffffffffffffffffff16815250508080611562906130e1565b91505061148f565b50809450505050505b92915050565b6060806060600060016006805490506115929190612f6a565b905060006040518061012001604052808381526020018b73ffffffffffffffffffffffffffffffffffffffff1681526020018a81526020018981526020018781526020018881526020018681526020018581526020018481525090506000803373ffffffffffffffffffffffffffffffffffffffff1673ffffffffffffffffffffffffffffffffffffffff1681526020019081526020016000208190806001815401808255809150506001900390600052602060002090600902016000909190919091506000820151816000015560208201518160010160006101000a81548173ffffffffffffffffffffffffffffffffffffffff021916908373ffffffffffffffffffffffffffffffffffffffff16021790555060408201518160020190805190602001906116c39291906124e5565b5060608201518160030190805190602001906116e09291906124e5565b506080820151816004015560a0820151816005015560c082015181600601908051906020019061171192919061245b565b5060e082015181600701908051906020019061172e92919061245b565b5061010082015181600801908051906020019061174c92919061245b565b50505080600260003373ffffffffffffffffffffffffffffffffffffffff1673ffffffffffffffffffffffffffffffffffffffff16815260200190815260200160002060008c73ffffffffffffffffffffffffffffffffffffffff1673ffffffffffffffffffffffffffffffffffffffff1681526020019081526020016000206000820151816000015560208201518160010160006101000a81548173ffffffffffffffffffffffffffffffffffffffff021916908373ffffffffffffffffffffffffffffffffffffffff16021790555060408201518160020190805190602001906118399291906124e5565b5060608201518160030190805190602001906118569291906124e5565b506080820151816004015560a0820151816005015560c082015181600601908051906020019061188792919061245b565b5060e08201518160070190805190602001906118a492919061245b565b506101008201518160080190805190602001906118c292919061245b565b5090505080600460008c73ffffffffffffffffffffffffffffffffffffffff1673ffffffffffffffffffffffffffffffffffffffff1681526020019081526020016000206000820151816000015560208201518160010160006101000a81548173ffffffffffffffffffffffffffffffffffffffff021916908373ffffffffffffffffffffffffffffffffffffffff16021790555060408201518160020190805190602001906119739291906124e5565b5060608201518160030190805190602001906119909291906124e5565b506080820151816004015560a0820151816005015560c08201518160060190805190602001906119c192919061245b565b5060e08201518160070190805190602001906119de92919061245b565b506101008201518160080190805190602001906119fc92919061245b565b5090505060068a9080600181540180825580915050600190039060005260206000200160009091909190916101000a81548173ffffffffffffffffffffffffffffffffffffffff021916908373ffffffffffffffffffffffffffffffffffffffff16021790555050505050505050505050565b600080600090505b600460008573ffffffffffffffffffffffffffffffffffffffff1673ffffffffffffffffffffffffffffffffffffffff16815260200190815260200160002060080180549050811015611bb9578273ffffffffffffffffffffffffffffffffffffffff16600460008673ffffffffffffffffffffffffffffffffffffffff1673ffffffffffffffffffffffffffffffffffffffff1681526020019081526020016000206008018281548110611b55577f4e487b7100000000000000000000000000000000000000000000000000000000600052603260045260246000fd5b9060005260206000200160009054906101000a900473ffffffffffffffffffffffffffffffffffffffff1673ffffffffffffffffffffffffffffffffffffffff161415611ba6576001915050611bbf565b8080611bb1906130e1565b915050611a77565b50600090505b92915050565b600080600090505b600680549050811015611c8f578273ffffffffffffffffffffffffffffffffffffffff1660068281548110611c2b577f4e487b7100000000000000000000000000000000000000000000000000000000600052603260045260246000fd5b9060005260206000200160009054906101000a900473ffffffffffffffffffffffffffffffffffffffff1673ffffffffffffffffffffffffffffffffffffffff161415611c7c576001915050611c95565b8080611c87906130e1565b915050611bcd565b50600090505b919050565b60006001600780549050611cae9190612f6a565b9050600060405180608001604052808381526020018673ffffffffffffffffffffffffffffffffffffffff168152602001858152602001848152509050600160003373ffffffffffffffffffffffffffffffffffffffff1673ffffffffffffffffffffffffffffffffffffffff1681526020019081526020016000208190806001815401808255809150506001900390600052602060002090600402016000909190919091506000820151816000015560208201518160010160006101000a81548173ffffffffffffffffffffffffffffffffffffffff021916908373ffffffffffffffffffffffffffffffffffffffff1602179055506040820151816002019080519060200190611dc19291906124e5565b5060608201518160030155505080600360003373ffffffffffffffffffffffffffffffffffffffff1673ffffffffffffffffffffffffffffffffffffffff16815260200190815260200160002060008773ffffffffffffffffffffffffffffffffffffffff1673ffffffffffffffffffffffffffffffffffffffff1681526020019081526020016000206000820151816000015560208201518160010160006101000a81548173ffffffffffffffffffffffffffffffffffffffff021916908373ffffffffffffffffffffffffffffffffffffffff1602179055506040820151816002019080519060200190611eb89291906124e5565b506060820151816003015590505080600560008773ffffffffffffffffffffffffffffffffffffffff1673ffffffffffffffffffffffffffffffffffffffff1681526020019081526020016000206000820151816000015560208201518160010160006101000a81548173ffffffffffffffffffffffffffffffffffffffff021916908373ffffffffffffffffffffffffffffffffffffffff1602179055506040820151816002019080519060200190611f739291906124e5565b50606082015181600301559050506007859080600181540180825580915050600190039060005260206000200160009091909190916101000a81548173ffffffffffffffffffffffffffffffffffffffff021916908373ffffffffffffffffffffffffffffffffffffffff1602179055505050505050565b600080600090505b6007805490508110156120b5578273ffffffffffffffffffffffffffffffffffffffff1660078281548110612051577f4e487b7100000000000000000000000000000000000000000000000000000000600052603260045260246000fd5b9060005260206000200160009054906101000a900473ffffffffffffffffffffffffffffffffffffffff1673ffffffffffffffffffffffffffffffffffffffff1614156120a25760019150506120bb565b80806120ad906130e1565b915050611ff3565b50600090505b919050565b612190600460008473ffffffffffffffffffffffffffffffffffffffff1673ffffffffffffffffffffffffffffffffffffffff16815260200190815260200160002060080180548060200260200160405190810160405280929190818152602001828054801561218557602002820191906000526020600020905b8160009054906101000a900473ffffffffffffffffffffffffffffffffffffffff1673ffffffffffffffffffffffffffffffffffffffff168152602001906001019080831161213b575b505050505082611271565b600460008473ffffffffffffffffffffffffffffffffffffffff1673ffffffffffffffffffffffffffffffffffffffff16815260200190815260200160002060080190805190602001906121e592919061245b565b505050565b6122ba600460008473ffffffffffffffffffffffffffffffffffffffff1673ffffffffffffffffffffffffffffffffffffffff1681526020019081526020016000206006018054806020026020016040519081016040528092919081815260200182805480156122af57602002820191906000526020600020905b8160009054906101000a900473ffffffffffffffffffffffffffffffffffffffff1673ffffffffffffffffffffffffffffffffffffffff1681526020019060010190808311612265575b505050505082611271565b600460008473ffffffffffffffffffffffffffffffffffffffff1673ffffffffffffffffffffffffffffffffffffffff168152602001908152602001600020600601908051906020019061230f92919061245b565b505050565b600460008373ffffffffffffffffffffffffffffffffffffffff1673ffffffffffffffffffffffffffffffffffffffff168152602001908152602001600020600601819080600181540180825580915050600190039060005260206000200160009091909190916101000a81548173ffffffffffffffffffffffffffffffffffffffff021916908373ffffffffffffffffffffffffffffffffffffffff1602179055505050565b60405180610120016040528060008152602001600073ffffffffffffffffffffffffffffffffffffffff168152602001606081526020016060815260200160008152602001600081526020016060815260200160608152602001606081525090565b604051806080016040528060008152602001600073ffffffffffffffffffffffffffffffffffffffff16815260200160608152602001600081525090565b8280548282559060005260206000209081019282156124d4579160200282015b828111156124d35782518260006101000a81548173ffffffffffffffffffffffffffffffffffffffff021916908373ffffffffffffffffffffffffffffffffffffffff1602179055509160200191906001019061247b565b5b5090506124e1919061256b565b5090565b8280546124f19061307e565b90600052602060002090601f016020900481019282612513576000855561255a565b82601f1061252c57805160ff191683800117855561255a565b8280016001018555821561255a579182015b8281111561255957825182559160200191906001019061253e565b5b509050612567919061256b565b5090565b5b8082111561258457600081600090555060010161256c565b5090565b600061259b61259684612e35565b612e10565b905080838252602082019050828560208602820111156125ba57600080fd5b60005b858110156125ea57816125d08882612632565b8452602084019350602083019250506001810190506125bd565b5050509392505050565b600061260761260284612e61565b612e10565b90508281526020810184848401111561261f57600080fd5b61262a84828561303c565b509392505050565b600081359050612641816131c8565b92915050565b600082601f83011261265857600080fd5b8135612668848260208601612588565b91505092915050565b600082601f83011261268257600080fd5b81356126928482602086016125f4565b91505092915050565b6000813590506126aa816131df565b92915050565b6000602082840312156126c257600080fd5b60006126d084828501612632565b91505092915050565b600080604083850312156126ec57600080fd5b60006126fa85828601612632565b925050602061270b85828601612632565b9150509250929050565b600080600080600060a0868803121561272d57600080fd5b600061273b88828901612632565b955050602086013567ffffffffffffffff81111561275857600080fd5b61276488828901612671565b945050604086013567ffffffffffffffff81111561278157600080fd5b61278d88828901612671565b935050606061279e8882890161269b565b92505060806127af8882890161269b565b9150509295509295909350565b6000806000606084860312156127d157600080fd5b60006127df86828701612632565b935050602084013567ffffffffffffffff8111156127fc57600080fd5b61280886828701612671565b92505060406128198682870161269b565b9150509250925092565b6000806040838503121561283657600080fd5b600083013567ffffffffffffffff81111561285057600080fd5b61285c85828601612647565b925050602061286d85828601612632565b9150509250929050565b600061288383836128b7565b60208301905092915050565b600061289b8383612ab4565b905092915050565b60006128af8383612c76565b905092915050565b6128c081612ff4565b82525050565b60006128d182612ec2565b6128db8185612f15565b93506128e683612e92565b8060005b838110156129175781516128fe8882612877565b975061290983612eee565b9250506001810190506128ea565b5085935050505092915050565b600061292f82612ec2565b6129398185612f26565b935061294483612e92565b8060005b8381101561297557815161295c8882612877565b975061296783612eee565b925050600181019050612948565b5085935050505092915050565b600061298d82612ecd565b6129978185612f37565b9350836020820285016129a985612ea2565b8060005b858110156129e557848403895281516129c6858261288f565b94506129d183612efb565b925060208a019950506001810190506129ad565b50829750879550505050505092915050565b6000612a0282612ed8565b612a0c8185612f48565b935083602082028501612a1e85612eb2565b8060005b85811015612a5a5784840389528151612a3b85826128a3565b9450612a4683612f08565b925060208a01995050600181019050612a22565b50829750879550505050505092915050565b612a7581613006565b82525050565b6000612a8682612ee3565b612a908185612f59565b9350612aa081856020860161304b565b612aa9816131b7565b840191505092915050565b600061012083016000830151612acd6000860182612d3c565b506020830151612ae060208601826128b7565b5060408301518482036040860152612af88282612a7b565b91505060608301518482036060860152612b128282612a7b565b9150506080830151612b276080860182612d3c565b5060a0830151612b3a60a0860182612d3c565b5060c083015184820360c0860152612b5282826128c6565b91505060e083015184820360e0860152612b6c82826128c6565b915050610100830151848203610100860152612b8882826128c6565b9150508091505092915050565b600061012083016000830151612bae6000860182612d3c565b506020830151612bc160208601826128b7565b5060408301518482036040860152612bd98282612a7b565b91505060608301518482036060860152612bf38282612a7b565b9150506080830151612c086080860182612d3c565b5060a0830151612c1b60a0860182612d3c565b5060c083015184820360c0860152612c3382826128c6565b91505060e083015184820360e0860152612c4d82826128c6565b915050610100830151848203610100860152612c6982826128c6565b9150508091505092915050565b6000608083016000830151612c8e6000860182612d3c565b506020830151612ca160208601826128b7565b5060408301518482036040860152612cb98282612a7b565b9150506060830151612cce6060860182612d3c565b508091505092915050565b6000608083016000830151612cf16000860182612d3c565b506020830151612d0460208601826128b7565b5060408301518482036040860152612d1c8282612a7b565b9150506060830151612d316060860182612d3c565b508091505092915050565b612d4581613032565b82525050565b60006020820190508181036000830152612d658184612924565b905092915050565b60006020820190508181036000830152612d878184612982565b905092915050565b60006020820190508181036000830152612da981846129f7565b905092915050565b6000602082019050612dc66000830184612a6c565b92915050565b60006020820190508181036000830152612de68184612b95565b905092915050565b60006020820190508181036000830152612e088184612cd9565b905092915050565b6000612e1a612e2b565b9050612e2682826130b0565b919050565b6000604051905090565b600067ffffffffffffffff821115612e5057612e4f613188565b5b602082029050602081019050919050565b600067ffffffffffffffff821115612e7c57612e7b613188565b5b612e85826131b7565b9050602081019050919050565b6000819050602082019050919050565b6000819050602082019050919050565b6000819050602082019050919050565b600081519050919050565b600081519050919050565b600081519050919050565b600081519050919050565b6000602082019050919050565b6000602082019050919050565b6000602082019050919050565b600082825260208201905092915050565b600082825260208201905092915050565b600082825260208201905092915050565b600082825260208201905092915050565b600082825260208201905092915050565b6000612f7582613032565b9150612f8083613032565b9250827fffffffffffffffffffffffffffffffffffffffffffffffffffffffffffffffff03821115612fb557612fb461312a565b5b828201905092915050565b6000612fcb82613032565b9150612fd683613032565b925082821015612fe957612fe861312a565b5b828203905092915050565b6000612fff82613012565b9050919050565b60008115159050919050565b600073ffffffffffffffffffffffffffffffffffffffff82169050919050565b6000819050919050565b82818337600083830152505050565b60005b8381101561306957808201518184015260208101905061304e565b83811115613078576000848401525b50505050565b6000600282049050600182168061309657607f821691505b602082108114156130aa576130a9613159565b5b50919050565b6130b9826131b7565b810181811067ffffffffffffffff821117156130d8576130d7613188565b5b80604052505050565b60006130ec82613032565b91507fffffffffffffffffffffffffffffffffffffffffffffffffffffffffffffffff82141561311f5761311e61312a565b5b600182019050919050565b7f4e487b7100000000000000000000000000000000000000000000000000000000600052601160045260246000fd5b7f4e487b7100000000000000000000000000000000000000000000000000000000600052602260045260246000fd5b7f4e487b7100000000000000000000000000000000000000000000000000000000600052604160045260246000fd5b6000601f19601f8301169050919050565b6131d181612ff4565b81146131dc57600080fd5b50565b6131e881613032565b81146131f357600080fd5b5056fea2646970667358221220da119c2beefe5b2ea0a65cafff2999573ba7936054ff803e4a528a2c9f7eb85f64736f6c63430008020033",
  "immutableReferences": {},
  "source": "// SPDX-License-Identifier: MIT\npragma solidity ^0.8.2;\npragma experimental ABIEncoderV2;\n\n//import \"@openzeppelin/contracts/utils/Strings.sol\";\n\ncontract Director{\n\n\n\n    struct Doctor{\n        uint id;\n        address walletAddress;\n        string name;\n        string specialty;\n        uint hospital_id;\n        uint age;\n        address[] pendingRequests;  // requests the doctor sent to patients\n        address[] patientsList;\n        address[] patientsRequests;   //requests recieved from patients\n    }\n\n    \n\n    struct Receptionist{\n        uint id;\n        address receptionistWallet;\n        string name;\n        uint hospital_id;\n    }\n\n    \n\n\n\n\n    mapping(address => Doctor[]) DirectorToDoctors;\n    mapping(address => Receptionist[]) DirectorToReceptionists;\n\n    mapping(address => mapping(address => Doctor)) directorToDoctors;\n    mapping(address => mapping(address => Receptionist)) directorToReceptionists;\n\n    mapping(address => Doctor) doctors;\n    mapping(address => Receptionist) receptionists;\n\n    address[] Doctors;\n    address[] Receptionists;\n    \n\n\n    \n    // this is a helper function that removes an address from an array of addresses and returns the new array\n    function removeAddressFromArray(address[] memory addressesArray, address addressToRemove) public pure returns (address[] memory) {\n        uint length = addressesArray.length;\n        uint indexToRemove = 0;\n        bool found = false;\n\n        // Find the index of the address to remove\n        for (uint i = 0; i < length; i++) {\n            if (addressesArray[i] == addressToRemove) {\n                indexToRemove = i;\n                found = true;\n                break;\n            }\n        }\n\n        // If the address is not found, return the original array\n        if (!found) {\n            return addressesArray;\n        }\n\n        // Create a new array to hold the result\n        address[] memory newArray = new address[](length - 1);\n\n        // Copy elements from the original array to the new array, excluding the address to remove\n        for (uint i = 0; i < indexToRemove; i++) {\n            newArray[i] = addressesArray[i];\n        }\n        for (uint i = indexToRemove + 1; i < length; i++) {\n            newArray[i - 1] = addressesArray[i];\n        }\n\n        return newArray;\n    }\n    \n    \n    function isDoctor(address _target) public view returns (bool){\n        for (uint i=0; i<Doctors.length; i++){\n            if(Doctors[i] == _target){\n                return true;\n            }\n        }\n        return false;\n    }\n\n    function isReceptionist(address _target) public view returns (bool){\n        for (uint i=0; i<Receptionists.length; i++){\n            if(Receptionists[i] == _target){\n                return true;\n            }\n        }\n        return false;\n    }\n\n\n    modifier OnlyDoctors(address _directorAddress) {\n        require(isDoctor(_directorAddress),\"Caller should be a doctor!\");\n        _;\n    }\n\n    modifier OnlyReceptionnists(address _directorAddress) {\n        require(isReceptionist(_directorAddress),\"Caller should be a receptionnist!\");\n        _;\n    }\n\n\n\n\n\n     //                                      functions of the director\n\n\n    \n    //function to add a new doctor\n    function addDoctor(address _walletAddress, string memory _name, string memory _specialty, uint _age, uint _hospital_id) public{\n        address[] memory _pendingRequests;\n        address[] memory _patientsList;\n        address[] memory _patientsRequests;\n        uint _id = Doctors.length+1;\n        \n        Doctor memory newDoctor = Doctor({\n            id: _id,\n            walletAddress: _walletAddress,\n            name: _name,\n            specialty: _specialty,\n            hospital_id: _hospital_id,\n            age: _age,\n            pendingRequests: _pendingRequests,\n            patientsList: _patientsList ,\n            patientsRequests: _patientsRequests\n        });\n\n        DirectorToDoctors[msg.sender].push(newDoctor);  \n        directorToDoctors[msg.sender][_walletAddress] = newDoctor;\n        doctors[_walletAddress] = newDoctor;\n        Doctors.push(_walletAddress);\n    }\n\n\n    //function to add a new receptionist\n    function addReceptionist(address _walletAddress, string memory _name, uint _hospital_id) public{\n        uint _id = Receptionists.length + 1;\n        Receptionist memory newReceptionist = Receptionist(_id, _walletAddress, _name, _hospital_id);\n        DirectorToReceptionists[msg.sender].push(newReceptionist);  \n        directorToReceptionists[msg.sender][_walletAddress] = newReceptionist;\n        receptionists[_walletAddress] = newReceptionist;\n        Receptionists.push(_walletAddress);\n    }\n\n\n\n    //function to get the list of doctors\n    function getDoctors(address _directorAddress) public view returns(Doctor[] memory){\n            return DirectorToDoctors[_directorAddress];\n        } \n\n    //function to get the list of receptionists\n    function getReceptionists(address _directorAddress) public view returns(Receptionist[] memory){\n        return DirectorToReceptionists[_directorAddress];\n    }\n\n    //function to get one doctor by his address and the address of his director\n    function getDoctor(address _doctorAddress) public view returns(Doctor memory){\n        return (doctors[_doctorAddress]);\n    }\n\n    //function to get one receptionist by his address and the address of his director\n    function getReceptionist(address _receptionistAddress) public view returns(Receptionist memory){\n        return (receptionists[_receptionistAddress]);\n    } \n\n\n    function pending(address _doctorAddress, address _patientAddress) public view returns (bool){\n        for (uint i=0; i<doctors[_doctorAddress].pendingRequests.length; i++){\n            if(doctors[_doctorAddress].pendingRequests[i] == _patientAddress){\n                return true;\n            }\n        }\n        return false;\n    }\n\n    function received(address _doctorAddress, address _patientAddress) public view returns (bool){\n        for (uint i=0; i<doctors[_doctorAddress].patientsRequests.length; i++){\n            if(doctors[_doctorAddress].patientsRequests[i] == _patientAddress){\n                return true;\n            }\n        }\n        return false;\n    }\n\n    function isMyPatient(address _doctorAddress, address _patientAddress) public view returns (bool){\n        for (uint i=0; i<doctors[_doctorAddress].patientsList.length; i++){\n            if(doctors[_doctorAddress].patientsList[i] == _patientAddress){\n                return true;\n            }\n        }\n        return false;\n    }\n\n    //function to add patient to list of patients\n    function acceptPatient (address doctor, address patient) public{\n        doctors[doctor].patientsList.push(patient);\n        doctors[doctor].patientsRequests = removeAddressFromArray(doctors[doctor].patientsRequests, patient);\n    }\n\n    // function to reject a request from a patient\n    function rejectPatient(address doctor, address patient) public{\n        doctors[doctor].patientsRequests = removeAddressFromArray(doctors[doctor].patientsRequests, patient);\n    }\n\n    //function to execute when a doctor withdraw a request\n    function doctorWithdrew(address doctor, address patient) public{\n        doctors[doctor].pendingRequests = removeAddressFromArray(doctors[doctor].pendingRequests, patient);\n    }\n\n    //function of doctor sending request\n    function accessRequest(address _doctor, address _patient) public{\n        doctors[_doctor].pendingRequests.push(_patient);\n    }\n\n    \n}",
  "sourcePath": "/home/amine/Downloads/2_eme/S2/PCD/projet/truffle/contracts/Director.sol",
  "compiler": {
    "name": "solc",
    "version": "0.8.2+commit.661d1103.Emscripten.clang"
  },
  "schemaVersion": "3.4.16",
  "updatedAt": "2024-05-06T15:26:15.239Z",
  "networkType": "ethereum",
  "devdoc": {
    "kind": "dev",
    "methods": {},
    "version": 1
  },
  "userdoc": {
    "kind": "user",
    "methods": {},
    "version": 1
  }
}