{
  "contractName": "HospitalsContract",
  "abi": [
    {
      "inputs": [],
      "payable": false,
      "stateMutability": "nonpayable",
      "type": "constructor"
    },
    {
      "anonymous": false,
      "inputs": [
        {
          "indexed": true,
          "internalType": "uint256",
          "name": "hospitalID",
          "type": "uint256"
        },
        {
          "indexed": true,
          "internalType": "address",
          "name": "oldDirector",
          "type": "address"
        },
        {
          "indexed": true,
          "internalType": "address",
          "name": "newDirector",
          "type": "address"
        }
      ],
      "name": "DirectorReplaced",
      "type": "event"
    },
    {
      "anonymous": false,
      "inputs": [
        {
          "indexed": true,
          "internalType": "address",
          "name": "_doctor",
          "type": "address"
        },
        {
          "indexed": true,
          "internalType": "address",
          "name": "_patient",
          "type": "address"
        }
      ],
      "name": "DoctorRequestedAccess",
      "type": "event"
    },
    {
      "anonymous": false,
      "inputs": [
        {
          "indexed": false,
          "internalType": "string",
          "name": "_name",
          "type": "string"
        }
      ],
      "name": "createdHospital",
      "type": "event"
    },
    {
      "constant": true,
      "inputs": [
        {
          "internalType": "address",
          "name": "_target",
          "type": "address"
        }
      ],
      "name": "isDirector",
      "outputs": [
        {
          "internalType": "bool",
          "name": "",
          "type": "bool"
        }
      ],
      "payable": false,
      "stateMutability": "view",
      "type": "function"
    },
    {
      "constant": true,
      "inputs": [
        {
          "internalType": "address",
          "name": "_target",
          "type": "address"
        }
      ],
      "name": "isDoctor",
      "outputs": [
        {
          "internalType": "bool",
          "name": "",
          "type": "bool"
        }
      ],
      "payable": false,
      "stateMutability": "view",
      "type": "function"
    },
    {
      "constant": true,
      "inputs": [
        {
          "internalType": "address",
          "name": "_target",
          "type": "address"
        }
      ],
      "name": "isPatient",
      "outputs": [
        {
          "internalType": "bool",
          "name": "",
          "type": "bool"
        }
      ],
      "payable": false,
      "stateMutability": "view",
      "type": "function"
    },
    {
      "constant": true,
      "inputs": [
        {
          "internalType": "uint256",
          "name": "_id",
          "type": "uint256"
        }
      ],
      "name": "validHospitalID",
      "outputs": [
        {
          "internalType": "bool",
          "name": "",
          "type": "bool"
        }
      ],
      "payable": false,
      "stateMutability": "view",
      "type": "function"
    },
    {
      "constant": true,
      "inputs": [
        {
          "internalType": "address",
          "name": "_doctor",
          "type": "address"
        },
        {
          "internalType": "address",
          "name": "_patientAddress",
          "type": "address"
        }
      ],
      "name": "isPatientInDoctor",
      "outputs": [
        {
          "internalType": "bool",
          "name": "",
          "type": "bool"
        }
      ],
      "payable": false,
      "stateMutability": "view",
      "type": "function"
    },
    {
      "constant": true,
      "inputs": [
        {
          "internalType": "address",
          "name": "_doctor",
          "type": "address"
        },
        {
          "internalType": "address",
          "name": "_patientAddress",
          "type": "address"
        }
      ],
      "name": "IsDoctorPending",
      "outputs": [
        {
          "internalType": "bool",
          "name": "",
          "type": "bool"
        }
      ],
      "payable": false,
      "stateMutability": "view",
      "type": "function"
    },
    {
      "constant": true,
      "inputs": [
        {
          "internalType": "address[]",
          "name": "addressesArray",
          "type": "address[]"
        },
        {
          "internalType": "address",
          "name": "addressToRemove",
          "type": "address"
        }
      ],
      "name": "removeAddressFromArray",
      "outputs": [
        {
          "internalType": "address[]",
          "name": "",
          "type": "address[]"
        }
      ],
      "payable": false,
      "stateMutability": "pure",
      "type": "function"
    },
    {
      "constant": true,
      "inputs": [
        {
          "internalType": "address",
          "name": "_director",
          "type": "address"
        }
      ],
      "name": "directorIndex",
      "outputs": [
        {
          "internalType": "uint256",
          "name": "",
          "type": "uint256"
        }
      ],
      "payable": false,
      "stateMutability": "view",
      "type": "function"
    },
    {
      "constant": false,
      "inputs": [
        {
          "internalType": "uint256",
          "name": "_id",
          "type": "uint256"
        },
        {
          "internalType": "string",
          "name": "_name",
          "type": "string"
        },
        {
          "internalType": "address",
          "name": "newDirectorAddress",
          "type": "address"
        }
      ],
      "name": "replaceDirector",
      "outputs": [],
      "payable": false,
      "stateMutability": "nonpayable",
      "type": "function"
    },
    {
      "constant": false,
      "inputs": [
        {
          "internalType": "string",
          "name": "_name",
          "type": "string"
        },
        {
          "internalType": "string",
          "name": "_location",
          "type": "string"
        },
        {
          "internalType": "address",
          "name": "_directorAddress",
          "type": "address"
        },
        {
          "internalType": "string",
          "name": "_directorName",
          "type": "string"
        }
      ],
      "name": "addHospital",
      "outputs": [],
      "payable": false,
      "stateMutability": "nonpayable",
      "type": "function"
    },
    {
      "constant": true,
      "inputs": [],
      "name": "getHospitals",
      "outputs": [
        {
          "components": [
            {
              "internalType": "uint256",
              "name": "id",
              "type": "uint256"
            },
            {
              "internalType": "string",
              "name": "name",
              "type": "string"
            },
            {
              "internalType": "string",
              "name": "location",
              "type": "string"
            },
            {
              "internalType": "address",
              "name": "director",
              "type": "address"
            }
          ],
          "internalType": "struct HospitalsContract.Hospital[]",
          "name": "",
          "type": "tuple[]"
        }
      ],
      "payable": false,
      "stateMutability": "view",
      "type": "function"
    },
    {
      "constant": false,
      "inputs": [
        {
          "internalType": "address",
          "name": "_walletAddress",
          "type": "address"
        },
        {
          "internalType": "string",
          "name": "_name",
          "type": "string"
        },
        {
          "internalType": "string",
          "name": "_specialty",
          "type": "string"
        },
        {
          "internalType": "uint256",
          "name": "_age",
          "type": "uint256"
        }
      ],
      "name": "addDoctor",
      "outputs": [],
      "payable": false,
      "stateMutability": "nonpayable",
      "type": "function"
    },
    {
      "constant": false,
      "inputs": [
        {
          "internalType": "address",
          "name": "_doctor",
          "type": "address"
        },
        {
          "internalType": "uint256",
          "name": "newHospital",
          "type": "uint256"
        }
      ],
      "name": "transferDoctor",
      "outputs": [],
      "payable": false,
      "stateMutability": "nonpayable",
      "type": "function"
    },
    {
      "constant": true,
      "inputs": [],
      "name": "getDoctors",
      "outputs": [
        {
          "internalType": "address[]",
          "name": "",
          "type": "address[]"
        }
      ],
      "payable": false,
      "stateMutability": "view",
      "type": "function"
    },
    {
      "constant": false,
      "inputs": [
        {
          "internalType": "address",
          "name": "_patient",
          "type": "address"
        }
      ],
      "name": "requestAccess",
      "outputs": [],
      "payable": false,
      "stateMutability": "nonpayable",
      "type": "function"
    },
    {
      "constant": false,
      "inputs": [
        {
          "internalType": "address",
          "name": "_patient",
          "type": "address"
        }
      ],
      "name": "acceptPatient",
      "outputs": [],
      "payable": false,
      "stateMutability": "nonpayable",
      "type": "function"
    },
    {
      "constant": false,
      "inputs": [
        {
          "internalType": "address",
          "name": "_patient",
          "type": "address"
        }
      ],
      "name": "rejectPatient",
      "outputs": [],
      "payable": false,
      "stateMutability": "nonpayable",
      "type": "function"
    }
  ],
  "bytecode": "0x608060405234801561001057600080fd5b50336000806101000a81548173ffffffffffffffffffffffffffffffffffffffff021916908373ffffffffffffffffffffffffffffffffffffffff1602179055506130ce806100606000396000f3fe608060405234801561001057600080fd5b506004361061010b5760003560e01c80637b6437a2116100a25780639e861ae0116100715780639e861ae0146102da578063afd0b6e4146102f6578063b13d5d9414610326578063e49b1d1314610344578063f81fab9f146103605761010b565b80637b6437a21461021a5780638bb6a8d01461024a5780638f9c79ed1461027a578063996440c6146102aa5761010b565b80631d5a85d8116100de5780631d5a85d814610196578063272f0a67146101c65780632c9365fa146101e25780633b551356146101fe5761010b565b8063022cb271146101105780630bf418181461012c5780631ae64aab1461015c5780631aecb28b14610178575b600080fd5b61012a6004803603610125919081019061247d565b610390565b005b610146600480360361014191908101906124a6565b610602565b6040516101539190612cff565b60405180910390f35b610176600480360361017191908101906126d9565b610725565b005b610180610a9c565b60405161018d9190612cdd565b60405180910390f35b6101b060048036036101ab919081019061247d565b610c9f565b6040516101bd9190612e7c565b60405180910390f35b6101e060048036036101db919081019061247d565b610d44565b005b6101fc60048036036101f7919081019061247d565b6110df565b005b61021860048036036102139190810190612575565b61132e565b005b610234600480360361022f91908101906125b1565b6114e3565b6040516102419190612cbb565b60405180910390f35b610264600480360361025f91908101906126b0565b6116ab565b6040516102719190612cff565b60405180910390f35b610294600480360361028f919081019061247d565b6116d9565b6040516102a19190612cff565b60405180910390f35b6102c460048036036102bf919081019061247d565b61177b565b6040516102d19190612cff565b60405180910390f35b6102f460048036036102ef9190810190612605565b61181d565b005b610310600480360361030b91908101906124a6565b611b4a565b60405161031d9190612cff565b60405180910390f35b61032e611c6d565b60405161033b9190612cbb565b60405180910390f35b61035e600480360361035991908101906124e2565b611cfb565b005b61037a6004803603610375919081019061247d565b611f89565b6040516103879190612cff565b60405180910390f35b610399816116d9565b6103d8576040517f08c379a00000000000000000000000000000000000000000000000000000000081526004016103cf90612e1c565b60405180910390fd5b6103e13361177b565b610420576040517f08c379a000000000000000000000000000000000000000000000000000000000815260040161041790612d3c565b60405180910390fd5b61042a3382610602565b610469576040517f08c379a000000000000000000000000000000000000000000000000000000000815260040161046090612dfc565b60405180910390fd5b6104733382611b4a565b156104b3576040517f08c379a00000000000000000000000000000000000000000000000000000000081526004016104aa90612e5c565b60405180910390fd5b600760008273ffffffffffffffffffffffffffffffffffffffff1673ffffffffffffffffffffffffffffffffffffffff1681526020019081526020016000206004013390806001815401808255809150509060018203906000526020600020016000909192909190916101000a81548173ffffffffffffffffffffffffffffffffffffffff021916908373ffffffffffffffffffffffffffffffffffffffff16021790555050600660003373ffffffffffffffffffffffffffffffffffffffff1673ffffffffffffffffffffffffffffffffffffffff1681526020019081526020016000206005018190806001815401808255809150509060018203906000526020600020016000909192909190916101000a81548173ffffffffffffffffffffffffffffffffffffffff021916908373ffffffffffffffffffffffffffffffffffffffff1602179055505050565b600080600090505b600660008573ffffffffffffffffffffffffffffffffffffffff1673ffffffffffffffffffffffffffffffffffffffff16815260200190815260200160002060060180549050811015610719578273ffffffffffffffffffffffffffffffffffffffff16600660008673ffffffffffffffffffffffffffffffffffffffff1673ffffffffffffffffffffffffffffffffffffffff16815260200190815260200160002060060182815481106106bb57fe5b9060005260206000200160009054906101000a900473ffffffffffffffffffffffffffffffffffffffff1673ffffffffffffffffffffffffffffffffffffffff16141561070c57600191505061071f565b808060010191505061060a565b50600090505b92915050565b6000809054906101000a900473ffffffffffffffffffffffffffffffffffffffff1673ffffffffffffffffffffffffffffffffffffffff163373ffffffffffffffffffffffffffffffffffffffff16146107b4576040517f08c379a00000000000000000000000000000000000000000000000000000000081526004016107ab90612d5c565b60405180910390fd5b6107bd836116ab565b6107fc576040517f08c379a00000000000000000000000000000000000000000000000000000000081526004016107f390612e3c565b60405180910390fd5b60006004600185038154811061080e57fe5b906000526020600020906004020160030160009054906101000a900473ffffffffffffffffffffffffffffffffffffffff169050600061084d82610c9f565b90506108576120b0565b60405180606001604052808681526020018573ffffffffffffffffffffffffffffffffffffffff16815260200187815250905080600560008673ffffffffffffffffffffffffffffffffffffffff1673ffffffffffffffffffffffffffffffffffffffff16815260200190815260200160002060008201518160000190805190602001906108e69291906120e7565b5060208201518160010160006101000a81548173ffffffffffffffffffffffffffffffffffffffff021916908373ffffffffffffffffffffffffffffffffffffffff16021790555060408201518160020155905050836004600188038154811061094c57fe5b906000526020600020906004020160030160006101000a81548173ffffffffffffffffffffffffffffffffffffffff021916908373ffffffffffffffffffffffffffffffffffffffff1602179055506000600560008573ffffffffffffffffffffffffffffffffffffffff1673ffffffffffffffffffffffffffffffffffffffff1681526020019081526020016000206002018190555083600383815481106109f157fe5b9060005260206000200160006101000a81548173ffffffffffffffffffffffffffffffffffffffff021916908373ffffffffffffffffffffffffffffffffffffffff1602179055508373ffffffffffffffffffffffffffffffffffffffff168373ffffffffffffffffffffffffffffffffffffffff16877fb6580b17425a7a77b06f83cf1137d5c15c287643f9cf623c2c90105c5cc7a22e60405160405180910390a4505050505050565b60606004805480602002602001604051908101604052809291908181526020016000905b82821015610c96578382906000526020600020906004020160405180608001604052908160008201548152602001600182018054600181600116156101000203166002900480601f016020809104026020016040519081016040528092919081815260200182805460018160011615610100020316600290048015610b865780601f10610b5b57610100808354040283529160200191610b86565b820191906000526020600020905b815481529060010190602001808311610b6957829003601f168201915b50505050508152602001600282018054600181600116156101000203166002900480601f016020809104026020016040519081016040528092919081815260200182805460018160011615610100020316600290048015610c285780601f10610bfd57610100808354040283529160200191610c28565b820191906000526020600020905b815481529060010190602001808311610c0b57829003601f168201915b505050505081526020016003820160009054906101000a900473ffffffffffffffffffffffffffffffffffffffff1673ffffffffffffffffffffffffffffffffffffffff1673ffffffffffffffffffffffffffffffffffffffff168152505081526020019060010190610ac0565b50505050905090565b600080600090505b600380549050811015610d35578273ffffffffffffffffffffffffffffffffffffffff1660038281548110610cd857fe5b9060005260206000200160009054906101000a900473ffffffffffffffffffffffffffffffffffffffff1673ffffffffffffffffffffffffffffffffffffffff161415610d285780915050610d3f565b8080600101915050610ca7565b5060038054905090505b919050565b600660003373ffffffffffffffffffffffffffffffffffffffff1673ffffffffffffffffffffffffffffffffffffffff1681526020019081526020016000206006018190806001815401808255809150509060018203906000526020600020016000909192909190916101000a81548173ffffffffffffffffffffffffffffffffffffffff021916908373ffffffffffffffffffffffffffffffffffffffff16021790555050610eba600660003373ffffffffffffffffffffffffffffffffffffffff1673ffffffffffffffffffffffffffffffffffffffff168152602001908152602001600020600701805480602002602001604051908101604052809291908181526020018280548015610eaf57602002820191906000526020600020905b8160009054906101000a900473ffffffffffffffffffffffffffffffffffffffff1673ffffffffffffffffffffffffffffffffffffffff1681526020019060010190808311610e65575b5050505050826114e3565b600660003373ffffffffffffffffffffffffffffffffffffffff1673ffffffffffffffffffffffffffffffffffffffff1681526020019081526020016000206007019080519060200190610f0f929190612167565b50600760008273ffffffffffffffffffffffffffffffffffffffff1673ffffffffffffffffffffffffffffffffffffffff1681526020019081526020016000206003013390806001815401808255809150509060018203906000526020600020016000909192909190916101000a81548173ffffffffffffffffffffffffffffffffffffffff021916908373ffffffffffffffffffffffffffffffffffffffff16021790555050611086600760008373ffffffffffffffffffffffffffffffffffffffff1673ffffffffffffffffffffffffffffffffffffffff16815260200190815260200160002060050180548060200260200160405190810160405280929190818152602001828054801561107b57602002820191906000526020600020905b8160009054906101000a900473ffffffffffffffffffffffffffffffffffffffff1673ffffffffffffffffffffffffffffffffffffffff1681526020019060010190808311611031575b5050505050336114e3565b600760008373ffffffffffffffffffffffffffffffffffffffff1673ffffffffffffffffffffffffffffffffffffffff16815260200190815260200160002060050190805190602001906110db929190612167565b5050565b6111af600760008373ffffffffffffffffffffffffffffffffffffffff1673ffffffffffffffffffffffffffffffffffffffff1681526020019081526020016000206005018054806020026020016040519081016040528092919081815260200182805480156111a457602002820191906000526020600020905b8160009054906101000a900473ffffffffffffffffffffffffffffffffffffffff1673ffffffffffffffffffffffffffffffffffffffff168152602001906001019080831161115a575b5050505050336114e3565b600760008373ffffffffffffffffffffffffffffffffffffffff1673ffffffffffffffffffffffffffffffffffffffff1681526020019081526020016000206005019080519060200190611204929190612167565b506112d5600660003373ffffffffffffffffffffffffffffffffffffffff1673ffffffffffffffffffffffffffffffffffffffff1681526020019081526020016000206007018054806020026020016040519081016040528092919081815260200182805480156112ca57602002820191906000526020600020905b8160009054906101000a900473ffffffffffffffffffffffffffffffffffffffff1673ffffffffffffffffffffffffffffffffffffffff1681526020019060010190808311611280575b5050505050826114e3565b600660003373ffffffffffffffffffffffffffffffffffffffff1673ffffffffffffffffffffffffffffffffffffffff168152602001908152602001600020600701908051906020019061132a929190612167565b5050565b8161133833611f89565b611377576040517f08c379a000000000000000000000000000000000000000000000000000000000815260040161136e90612d9c565b60405180910390fd5b6113808161177b565b6113bf576040517f08c379a00000000000000000000000000000000000000000000000000000000081526004016113b690612dbc565b60405180910390fd5b600660008273ffffffffffffffffffffffffffffffffffffffff1673ffffffffffffffffffffffffffffffffffffffff16815260200190815260200160002060030154600560003373ffffffffffffffffffffffffffffffffffffffff1673ffffffffffffffffffffffffffffffffffffffff1681526020019081526020016000206002015414611485576040517f08c379a000000000000000000000000000000000000000000000000000000000815260040161147c90612d7c565b60405180910390fd5b61148e826116ab565b61149757600080fd5b81600660008573ffffffffffffffffffffffffffffffffffffffff1673ffffffffffffffffffffffffffffffffffffffff16815260200190815260200160002060030181905550505050565b60606000835190506000809050600080905060008090505b83811015611563578573ffffffffffffffffffffffffffffffffffffffff1687828151811061152657fe5b602002602001015173ffffffffffffffffffffffffffffffffffffffff1614156115565780925060019150611563565b80806001019150506114fb565b5080611574578593505050506116a5565b6060600184036040519080825280602002602001820160405280156115a85781602001602082028038833980820191505090505b50905060008090505b83811015611620578781815181106115c557fe5b60200260200101518282815181106115d957fe5b602002602001019073ffffffffffffffffffffffffffffffffffffffff16908173ffffffffffffffffffffffffffffffffffffffff168152505080806001019150506115b1565b5060006001840190505b8481101561169c5787818151811061163e57fe5b602002602001015182600183038151811061165557fe5b602002602001019073ffffffffffffffffffffffffffffffffffffffff16908173ffffffffffffffffffffffffffffffffffffffff1681525050808060010191505061162a565b50809450505050505b92915050565b600080821180156116c157506004805490508211155b156116cf57600190506116d4565b600090505b919050565b600080600090505b600280549050811015611770578273ffffffffffffffffffffffffffffffffffffffff166002828154811061171257fe5b9060005260206000200160009054906101000a900473ffffffffffffffffffffffffffffffffffffffff1673ffffffffffffffffffffffffffffffffffffffff161415611763576001915050611776565b80806001019150506116e1565b50600090505b919050565b600080600090505b600180549050811015611812578273ffffffffffffffffffffffffffffffffffffffff16600182815481106117b457fe5b9060005260206000200160009054906101000a900473ffffffffffffffffffffffffffffffffffffffff1673ffffffffffffffffffffffffffffffffffffffff161415611805576001915050611818565b8080600101915050611783565b50600090505b919050565b6000809054906101000a900473ffffffffffffffffffffffffffffffffffffffff1673ffffffffffffffffffffffffffffffffffffffff163373ffffffffffffffffffffffffffffffffffffffff16146118ac576040517f08c379a00000000000000000000000000000000000000000000000000000000081526004016118a390612d5c565b60405180910390fd5b6118b46120b0565b60405180606001604052808381526020018473ffffffffffffffffffffffffffffffffffffffff168152602001600160048054905001815250905080600560008573ffffffffffffffffffffffffffffffffffffffff1673ffffffffffffffffffffffffffffffffffffffff168152602001908152602001600020600082015181600001908051906020019061194b9291906120e7565b5060208201518160010160006101000a81548173ffffffffffffffffffffffffffffffffffffffff021916908373ffffffffffffffffffffffffffffffffffffffff1602179055506040820151816002015590505060038390806001815401808255809150509060018203906000526020600020016000909192909190916101000a81548173ffffffffffffffffffffffffffffffffffffffff021916908373ffffffffffffffffffffffffffffffffffffffff16021790555050611a0e6121f1565b604051806080016040528060016004805490500181526020018781526020018681526020018573ffffffffffffffffffffffffffffffffffffffff16815250905060048190806001815401808255809150509060018203906000526020600020906004020160009091929091909150600082015181600001556020820151816001019080519060200190611aa39291906120e7565b506040820151816002019080519060200190611ac09291906120e7565b5060608201518160030160006101000a81548173ffffffffffffffffffffffffffffffffffffffff021916908373ffffffffffffffffffffffffffffffffffffffff1602179055505050507fa3cd7c0ff1e73e2bbde7e3a07ef86943a06e32248fd8e693c50362b19efd7afe86604051611b3a9190612d1a565b60405180910390a1505050505050565b600080600090505b600760008473ffffffffffffffffffffffffffffffffffffffff1673ffffffffffffffffffffffffffffffffffffffff16815260200190815260200160002060040180549050811015611c61578373ffffffffffffffffffffffffffffffffffffffff16600760008573ffffffffffffffffffffffffffffffffffffffff1673ffffffffffffffffffffffffffffffffffffffff1681526020019081526020016000206004018281548110611c0357fe5b9060005260206000200160009054906101000a900473ffffffffffffffffffffffffffffffffffffffff1673ffffffffffffffffffffffffffffffffffffffff161415611c54576001915050611c67565b8080600101915050611b52565b50600090505b92915050565b60606001805480602002602001604051908101604052809291908181526020018280548015611cf157602002820191906000526020600020905b8160009054906101000a900473ffffffffffffffffffffffffffffffffffffffff1673ffffffffffffffffffffffffffffffffffffffff1681526020019060010190808311611ca7575b5050505050905090565b611d0433611f89565b611d43576040517f08c379a0000000000000000000000000000000000000000000000000000000008152600401611d3a90612ddc565b60405180910390fd5b6000600560003373ffffffffffffffffffffffffffffffffffffffff1673ffffffffffffffffffffffffffffffffffffffff1681526020019081526020016000206002015490506060806060611d9761222f565b6040518061010001604052808a73ffffffffffffffffffffffffffffffffffffffff16815260200189815260200188815260200186815260200187815260200185815260200184815260200183815250905060018990806001815401808255809150509060018203906000526020600020016000909192909190916101000a81548173ffffffffffffffffffffffffffffffffffffffff021916908373ffffffffffffffffffffffffffffffffffffffff1602179055505080600660008b73ffffffffffffffffffffffffffffffffffffffff1673ffffffffffffffffffffffffffffffffffffffff16815260200190815260200160002060008201518160000160006101000a81548173ffffffffffffffffffffffffffffffffffffffff021916908373ffffffffffffffffffffffffffffffffffffffff1602179055506020820151816001019080519060200190611ef29291906120e7565b506040820151816002019080519060200190611f0f9291906120e7565b50606082015181600301556080820151816004015560a0820151816005019080519060200190611f4092919061228a565b5060c0820151816006019080519060200190611f5d92919061228a565b5060e0820151816007019080519060200190611f7a92919061228a565b50905050505050505050505050565b600080600090505b6003805490508110156120a5578273ffffffffffffffffffffffffffffffffffffffff1660038281548110611fc257fe5b9060005260206000200160009054906101000a900473ffffffffffffffffffffffffffffffffffffffff1673ffffffffffffffffffffffffffffffffffffffff1614801561208957506000600560006003848154811061201e57fe5b9060005260206000200160009054906101000a900473ffffffffffffffffffffffffffffffffffffffff1673ffffffffffffffffffffffffffffffffffffffff1673ffffffffffffffffffffffffffffffffffffffff16815260200190815260200160002060020154115b156120985760019150506120ab565b8080600101915050611f91565b50600090505b919050565b604051806060016040528060608152602001600073ffffffffffffffffffffffffffffffffffffffff168152602001600081525090565b828054600181600116156101000203166002900490600052602060002090601f016020900481019282601f1061212857805160ff1916838001178555612156565b82800160010185558215612156579182015b8281111561215557825182559160200191906001019061213a565b5b5090506121639190612314565b5090565b8280548282559060005260206000209081019282156121e0579160200282015b828111156121df5782518260006101000a81548173ffffffffffffffffffffffffffffffffffffffff021916908373ffffffffffffffffffffffffffffffffffffffff16021790555091602001919060010190612187565b5b5090506121ed9190612339565b5090565b6040518060800160405280600081526020016060815260200160608152602001600073ffffffffffffffffffffffffffffffffffffffff1681525090565b604051806101000160405280600073ffffffffffffffffffffffffffffffffffffffff168152602001606081526020016060815260200160008152602001600081526020016060815260200160608152602001606081525090565b828054828255906000526020600020908101928215612303579160200282015b828111156123025782518260006101000a81548173ffffffffffffffffffffffffffffffffffffffff021916908373ffffffffffffffffffffffffffffffffffffffff160217905550916020019190600101906122aa565b5b5090506123109190612339565b5090565b61233691905b8082111561233257600081600090555060010161231a565b5090565b90565b61237991905b8082111561237557600081816101000a81549073ffffffffffffffffffffffffffffffffffffffff02191690555060010161233f565b5090565b90565b60008135905061238b8161305d565b92915050565b600082601f8301126123a257600080fd5b81356123b56123b082612ec4565b612e97565b915081818352602084019350602081019050838560208402820111156123da57600080fd5b60005b8381101561240a57816123f0888261237c565b8452602084019350602083019250506001810190506123dd565b5050505092915050565b600082601f83011261242557600080fd5b813561243861243382612eec565b612e97565b9150808252602083016020830185838301111561245457600080fd5b61245f83828461300a565b50505092915050565b60008135905061247781613074565b92915050565b60006020828403121561248f57600080fd5b600061249d8482850161237c565b91505092915050565b600080604083850312156124b957600080fd5b60006124c78582860161237c565b92505060206124d88582860161237c565b9150509250929050565b600080600080608085870312156124f857600080fd5b60006125068782880161237c565b945050602085013567ffffffffffffffff81111561252357600080fd5b61252f87828801612414565b935050604085013567ffffffffffffffff81111561254c57600080fd5b61255887828801612414565b925050606061256987828801612468565b91505092959194509250565b6000806040838503121561258857600080fd5b60006125968582860161237c565b92505060206125a785828601612468565b9150509250929050565b600080604083850312156125c457600080fd5b600083013567ffffffffffffffff8111156125de57600080fd5b6125ea85828601612391565b92505060206125fb8582860161237c565b9150509250929050565b6000806000806080858703121561261b57600080fd5b600085013567ffffffffffffffff81111561263557600080fd5b61264187828801612414565b945050602085013567ffffffffffffffff81111561265e57600080fd5b61266a87828801612414565b935050604061267b8782880161237c565b925050606085013567ffffffffffffffff81111561269857600080fd5b6126a487828801612414565b91505092959194509250565b6000602082840312156126c257600080fd5b60006126d084828501612468565b91505092915050565b6000806000606084860312156126ee57600080fd5b60006126fc86828701612468565b935050602084013567ffffffffffffffff81111561271957600080fd5b61272586828701612414565b92505060406127368682870161237c565b9150509250925092565b600061274c838361276c565b60208301905092915050565b60006127648383612c33565b905092915050565b61277581612fc2565b82525050565b600061278682612f38565b6127908185612f7e565b935061279b83612f18565b8060005b838110156127cc5781516127b38882612740565b97506127be83612f64565b92505060018101905061279f565b5085935050505092915050565b60006127e482612f43565b6127ee8185612f8f565b93508360208202850161280085612f28565b8060005b8581101561283c578484038952815161281d8582612758565b945061282883612f71565b925060208a01995050600181019050612804565b50829750879550505050505092915050565b61285781612fd4565b82525050565b600061286882612f59565b6128728185612fb1565b9350612882818560208601613019565b61288b8161304c565b840191505092915050565b60006128a182612f4e565b6128ab8185612fa0565b93506128bb818560208601613019565b6128c48161304c565b840191505092915050565b60006128dc602183612fb1565b91507f43616c6c6572206973206e6f7420612072656769737465726420646f63746f7260008301527f21000000000000000000000000000000000000000000000000000000000000006020830152604082019050919050565b6000612942602383612fb1565b91507f43616c6c65722073686f756c6420626520686f73706974616c2064697265637460008301527f6f722100000000000000000000000000000000000000000000000000000000006020830152604082019050919050565b60006129a8602083612fb1565b91507f446f63746f7220776f726b7320696e20616e6f7468657220686f73706974616c6000830152602082019050919050565b60006129e8601583612fb1565b91507f4e6f7420612076616c6964204469726563746f722100000000000000000000006000830152602082019050919050565b6000612a28601383612fb1565b91507f4e6f7420612076616c696420446f63746f7221000000000000000000000000006000830152602082019050919050565b6000612a68602583612fb1565b91507f43616c6c65722073686f756c64206265206120686f73706974616c206469726560008301527f63746f72210000000000000000000000000000000000000000000000000000006020830152604082019050919050565b6000612ace602e83612fb1565b91507f596f7520616c726561647920686176652061636365737320746f20746869732060008301527f70617469656e74277320646174610000000000000000000000000000000000006020830152604082019050919050565b6000612b34601983612fb1565b91507f4e6f74206120726567697374657265642070617469656e7421000000000000006000830152602082019050919050565b6000612b74602b83612fb1565b91507f4e6f207265676973746572656420686f73706974616c2077697468207468652060008301527f70726f76696465642049440000000000000000000000000000000000000000006020830152604082019050919050565b6000612bda602a83612fb1565b91507f596f7520616c72656164792073656e742061207265717565737420746f20746860008301527f69732070617469656e74000000000000000000000000000000000000000000006020830152604082019050919050565b6000608083016000830151612c4b6000860182612c9d565b5060208301518482036020860152612c638282612896565b91505060408301518482036040860152612c7d8282612896565b9150506060830151612c92606086018261276c565b508091505092915050565b612ca681613000565b82525050565b612cb581613000565b82525050565b60006020820190508181036000830152612cd5818461277b565b905092915050565b60006020820190508181036000830152612cf781846127d9565b905092915050565b6000602082019050612d14600083018461284e565b92915050565b60006020820190508181036000830152612d34818461285d565b905092915050565b60006020820190508181036000830152612d55816128cf565b9050919050565b60006020820190508181036000830152612d7581612935565b9050919050565b60006020820190508181036000830152612d958161299b565b9050919050565b60006020820190508181036000830152612db5816129db565b9050919050565b60006020820190508181036000830152612dd581612a1b565b9050919050565b60006020820190508181036000830152612df581612a5b565b9050919050565b60006020820190508181036000830152612e1581612ac1565b9050919050565b60006020820190508181036000830152612e3581612b27565b9050919050565b60006020820190508181036000830152612e5581612b67565b9050919050565b60006020820190508181036000830152612e7581612bcd565b9050919050565b6000602082019050612e916000830184612cac565b92915050565b6000604051905081810181811067ffffffffffffffff82111715612eba57600080fd5b8060405250919050565b600067ffffffffffffffff821115612edb57600080fd5b602082029050602081019050919050565b600067ffffffffffffffff821115612f0357600080fd5b601f19601f8301169050602081019050919050565b6000819050602082019050919050565b6000819050602082019050919050565b600081519050919050565b600081519050919050565b600081519050919050565b600081519050919050565b6000602082019050919050565b6000602082019050919050565b600082825260208201905092915050565b600082825260208201905092915050565b600082825260208201905092915050565b600082825260208201905092915050565b6000612fcd82612fe0565b9050919050565b60008115159050919050565b600073ffffffffffffffffffffffffffffffffffffffff82169050919050565b6000819050919050565b82818337600083830152505050565b60005b8381101561303757808201518184015260208101905061301c565b83811115613046576000848401525b50505050565b6000601f19601f8301169050919050565b61306681612fc2565b811461307157600080fd5b50565b61307d81613000565b811461308857600080fd5b5056fea365627a7a72315820605540a1c7715aa7033ea57cd0bedb3d588f7248d1ba42cb648f9e1b339e11386c6578706572696d656e74616cf564736f6c63430005100040",
  "source": "// SPDX-License-Identifier: MIT\npragma solidity ^0.5.16;\npragma experimental ABIEncoderV2;\n\ncontract HospitalsContract{\n\n    \n\n    struct Hospital{\n        uint id;\n        string name;\n        string location;\n        address director;\n    }\n\n    struct Director{\n        string name;\n        address walletAddress;\n        uint hospital_id;  //0 if he is removed \n    }\n\n    struct Doctor{\n        address walletAddress;\n        string name;\n        string specialty;\n        uint hospital_id;\n        uint age;\n        address[] pendingRequests;  // requests the doctor sent to patients\n        address[] patientsList;\n        address[] patientsRequests;   //requests recieved from patients\n    }\n\n    struct Patient{\n        address patientWallet;\n        string name;\n        uint age;\n        address[] authorizedDoctors;\n        address[] doctorsRequests;\n        address[] pendingRequests;\n    }\n\n    address owner; //supposed to be a responsible in the health ministry\n    address[] Doctors;\n    address[] Patients;\n    address[] Directors;\n    Hospital[] Hospitals;\n\n    mapping(address => Director) directors;\n    mapping(address => Doctor) doctors;\n    mapping(address => Patient) patients;\n\n\n\n    // constructor\n    constructor() public {\n        owner = msg.sender;\n    }\n\n    event DirectorReplaced(uint indexed hospitalID, address indexed oldDirector, address indexed newDirector);\n    event DoctorRequestedAccess(address indexed _doctor, address indexed _patient);\n\n    modifier OnlyOwner() {\n        require (msg.sender == owner,'Caller should be hospital director!');\n        _;\n    }\n\n    function isDirector(address _target) public view returns (bool) {\n        for (uint i=0; i<Directors.length; i++){\n            if(Directors[i] == _target && directors[Directors[i]].hospital_id>0){\n                return true;\n            }\n        }\n        return false;\n    }\n\n    modifier OnlyDirectors() {\n        require(isDirector(msg.sender),'Caller should be a hospital director!');\n        _;\n    }\n\n\n    function isDoctor(address _target) public view returns (bool){\n        for (uint i=0; i<Doctors.length; i++){\n            if(Doctors[i] == _target){\n                return true;\n            }\n        }\n        return false;\n    }\n\n\n    modifier OnlyDoctors() {\n        require(isDoctor(msg.sender),\"Caller should be a doctor!\");\n        _;\n    }\n\n    function isPatient(address _target) public view returns (bool){\n        for (uint i=0; i<Patients.length; i++){\n            if(Patients[i] == _target){\n                return true;\n            }\n        }\n        return false;\n    }\n\n    function validHospitalID(uint _id) public view returns (bool){\n        if (_id>0 && _id<=Hospitals.length){\n            return true;\n        }\n        else{\n            return false;\n        }\n    }\n\n\n    function isPatientInDoctor(address _doctor, address _patientAddress) public view returns (bool) {\n        for (uint i = 0; i < doctors[_doctor].patientsList.length; i++) {\n            if (doctors[_doctor].patientsList[i] == _patientAddress) {\n                return true;\n            }\n        }\n        return false;\n    }\n\n    function IsDoctorPending(address _doctor, address _patientAddress) public view returns (bool) {\n        for (uint i = 0; i < patients[_patientAddress].doctorsRequests.length; i++) {\n            if (patients[_patientAddress].doctorsRequests[i] == _doctor) {\n                return true;\n            }\n        }\n        return false;\n    }\n\n\n\n\n    function removeAddressFromArray(address[] memory addressesArray, address addressToRemove) public pure returns (address[] memory) {\n        uint length = addressesArray.length;\n        uint indexToRemove = 0;\n        bool found = false;\n\n        // Find the index of the address to remove\n        for (uint i = 0; i < length; i++) {\n            if (addressesArray[i] == addressToRemove) {\n                indexToRemove = i;\n                found = true;\n                break;\n            }\n        }\n\n        // If the address is not found, return the original array\n        if (!found) {\n            return addressesArray;\n        }\n\n        // Create a new array to hold the result\n        address[] memory newArray = new address[](length - 1);\n\n        // Copy elements from the original array to the new array, excluding the address to remove\n        for (uint i = 0; i < indexToRemove; i++) {\n            newArray[i] = addressesArray[i];\n        }\n        for (uint i = indexToRemove + 1; i < length; i++) {\n            newArray[i - 1] = addressesArray[i];\n        }\n\n        return newArray;\n    }\n\n\n\n\n\n\n\n\n\n    modifier DirectorOfDoctor(address _doctor) {\n        require(isDirector(msg.sender),\"Not a valid Director!\");\n        require(isDoctor(_doctor),\"Not a valid Doctor!\");\n        require(directors[msg.sender].hospital_id == doctors[_doctor].hospital_id,\"Doctor works in another hospital\");\n        _;\n    }\n\n    //function to find director index in Directors given his address\n    function directorIndex(address _director) public view returns(uint) {\n        for (uint i=0; i<Directors.length; i++){\n            if (Directors[i] == _director){\n                return i;\n            }\n        }\n        return Directors.length;\n    }\n\n    \n    \n    \n    \n    \n    \n    \n    \n    \n    \n    //                      functions of the owner of the contract\n    \n    \n    //function to replace a director with another one\n    function replaceDirector(uint _id, string memory _name, address newDirectorAddress) public OnlyOwner {\n        require(validHospitalID(_id),\"No registered hospital with the provided ID\");\n        address oldDirector = Hospitals[_id-1].director;  //save address of the ancient director for event emission\n        uint index = directorIndex(oldDirector); //his index in the array of Directors\n        Director memory newDirector = Director(_name, newDirectorAddress, _id); //instantiate the new director\n        directors[newDirectorAddress] = newDirector; //add new director to the mapping of dircetors \n        Hospitals[_id-1].director = newDirectorAddress; //update the director address of the hospital\n        directors[oldDirector].hospital_id = 0;  //set hospital ID of ancient director to 0 as he no longer works there\n        Directors[index] = newDirectorAddress; //add the new director to the array\n        \n        emit DirectorReplaced(_id, oldDirector, newDirectorAddress); //emit the event of replacement\n    }\n\n\n\n    //event of hospital creation\n    event createdHospital(string _name);\n\n\n\n    //function to add a hospital and appoint a director to it\n    function addHospital(string memory _name, string memory _location, address _directorAddress, string memory _directorName) public OnlyOwner{\n        Director memory newDirector = Director(_directorName, _directorAddress, Hospitals.length + 1);  //instantiate the new director\n        directors[_directorAddress] = newDirector; //add the new director to the mapping of directors\n        Directors.push (_directorAddress);\n        Hospital memory newHospital = Hospital(Hospitals.length+1, _name, _location, _directorAddress);   // instantiate the new hospital\n        Hospitals.push(newHospital);\n        emit createdHospital(_name);\n    }\n\n\n    //function to get the hospitals array\n    function getHospitals() public view returns(Hospital[] memory){\n        return Hospitals;\n    } \n\n\n    \n    \n    \n    \n    \n    \n    \n    \n    \n    \n    \n    \n    //                                      functions of the director\n\n\n    \n    //function to add a new doctor\n    function addDoctor(address _walletAddress, string memory _name, string memory _specialty, uint _age) public OnlyDirectors{\n        uint _hospital_id = directors[msg.sender].hospital_id;\n        address[] memory _pendingRequests;\n        address[] memory _patientsList;\n        address[] memory _patientsRequests;\n        \n        Doctor memory newDoctor = Doctor({\n            walletAddress: _walletAddress,\n            name: _name,\n            specialty: _specialty,\n            hospital_id: _hospital_id,\n            age: _age,\n            pendingRequests: _pendingRequests,\n            patientsList: _patientsList ,\n            patientsRequests: _patientsRequests\n        });\n\n        Doctors.push(_walletAddress);\n        doctors[_walletAddress] = newDoctor;  \n    }\n\n\n    //function to transfer a doctor from one hospital to another\n\nfunction transferDoctor(address _doctor, uint newHospital) public DirectorOfDoctor(_doctor) {\n    require(validHospitalID(newHospital));\n    doctors[_doctor].hospital_id = newHospital;\n}\n\n\n//function to get the list of doctors\nfunction getDoctors() public view returns(address[] memory){\n        return Doctors;\n    } \n\n\n\n\n\n\n\n\n//                        functions of the doctor\n\n// function to to request access from a patient\nfunction requestAccess(address _patient) public{\n    require (isPatient(_patient), 'Not a registered patient!');\n    require(isDoctor(msg.sender),'Caller is not a registerd doctor!');\n    require(isPatientInDoctor(msg.sender, _patient),\"You already have access to this patient's data\");\n    require(!IsDoctorPending(msg.sender, _patient),\"You already sent a request to this patient\");\n    patients[_patient].doctorsRequests.push(msg.sender);\n    doctors[msg.sender].pendingRequests.push(_patient);\n\n}\n\n\n//function to accept a patient\nfunction acceptPatient(address _patient) public {\n    doctors[msg.sender].patientsList.push(_patient);\n    doctors[msg.sender].patientsRequests = removeAddressFromArray(doctors[msg.sender].patientsRequests, _patient);\n    patients[_patient].authorizedDoctors.push(msg.sender);\n    patients[_patient].pendingRequests = removeAddressFromArray(patients[_patient].pendingRequests, msg.sender);\n    \n}\n\n// function to reject a patient\nfunction rejectPatient( address _patient) public{\n    patients[_patient].pendingRequests = removeAddressFromArray(patients[_patient].pendingRequests, msg.sender);\n    doctors[msg.sender].patientsRequests = removeAddressFromArray(doctors[msg.sender].patientsRequests, _patient);\n\n}\n    \n    \n    \n    \n    \n    \n    \n    \n    \n    \n    \n}\n\n    \n\n\n\n\n\n\n\n\n\n\n    /*\n\n    \n\n    // Function to check if a patient is registered for a doctor\n    function isPatientInDoctor(address _doctor, address _patientAddress) public view returns (bool) {\n        for (uint i = 0; i < doctors[_doctor].patientsList.length; i++) {\n            if (doctors[_doctor].patientsList(i) == _patientAddress) {\n                return true;\n            }\n        }\n        return false;\n    }\n\n    //function that returns the patient index and will only be called when we make sure the patient exists in the doctor's list\n    function PatientIndex(address _doctor, address _patient) public view returns (uint) {\n        for (uint i = 0; i < doctors[_doctor].patientsList.length; i++) {\n            if (doctors[_doctor].patientsList(i) == _patient) {\n                return i;\n            }\n        }\n    }\n\n    function DoctorIndex(address _doctor, address _patient) public view returns (uint) {\n        for (uint i = 0; i < doctors[_doctor].patientsList.length; i++) {\n            if (patients[_patient].doctorsList(i) == _doctor) {\n                return i;\n            }\n        }\n    }\n\n\n\n\n\n\n\n    // Modifier to check if the caller is an authorized doctor for the patient\n    modifier onlyAuthorizedDoctor(address _patient) {\n        require(isPatientInDoctor(msg.sender, _patient) , \"Not authorized doctor for this patient\");\n        _;\n    }\n\n\n\n\n\n\n    function requestAccess (address _patient) public OnlyDoctors{\n        require (!isPatientInDoctor(msg.sender, _patient),\"Doctor already has access\");\n        doctors[msg.sender].pendingRequests.push(_patient);\n        patients[_patient].patientsRequests.push(msg.sender);\n    }\n}   */\n\n",
  "sourcePath": "/home/amine/Downloads/2_eme/S2/PCD/projet/truffle/contracts/HospitalsContract.sol",
  "compiler": {
    "name": "solc",
    "version": "0.5.16+commit.9c3226ce.Emscripten.clang"
  },
  "schemaVersion": "3.4.16",
  "updatedAt": "2024-04-19T22:26:44.445Z",
  "devdoc": {
    "methods": {}
  },
  "userdoc": {
    "methods": {}
  }
}