{
  "contractName": "Receptionist",
  "abi": [
    {
      "inputs": [
        {
          "internalType": "address[]",
          "name": "addressesArray",
          "type": "address[]"
        },
        {
          "internalType": "address",
          "name": "addressToRemove",
          "type": "address"
        }
      ],
      "name": "removeAddressFromArray",
      "outputs": [
        {
          "internalType": "address[]",
          "name": "",
          "type": "address[]"
        }
      ],
      "stateMutability": "pure",
      "type": "function",
      "constant": true
    },
    {
      "inputs": [
        {
          "internalType": "address",
          "name": "patientAddress",
          "type": "address"
        },
        {
          "internalType": "string",
          "name": "_from",
          "type": "string"
        },
        {
          "internalType": "string",
          "name": "_to",
          "type": "string"
        },
        {
          "internalType": "string",
          "name": "_medicines",
          "type": "string"
        }
      ],
      "name": "setPrescription",
      "outputs": [],
      "stateMutability": "nonpayable",
      "type": "function"
    },
    {
      "inputs": [
        {
          "internalType": "address",
          "name": "patientAddress",
          "type": "address"
        }
      ],
      "name": "getPrescriptions",
      "outputs": [
        {
          "components": [
            {
              "internalType": "string",
              "name": "from",
              "type": "string"
            },
            {
              "internalType": "string",
              "name": "to",
              "type": "string"
            },
            {
              "internalType": "uint256",
              "name": "date",
              "type": "uint256"
            },
            {
              "internalType": "string",
              "name": "medicines",
              "type": "string"
            }
          ],
          "internalType": "struct Receptionist.Prescription[]",
          "name": "",
          "type": "tuple[]"
        }
      ],
      "stateMutability": "view",
      "type": "function",
      "constant": true
    },
    {
      "inputs": [
        {
          "internalType": "address",
          "name": "_patientAddress",
          "type": "address"
        },
        {
          "internalType": "string",
          "name": "_name",
          "type": "string"
        },
        {
          "internalType": "uint256",
          "name": "_age",
          "type": "uint256"
        },
        {
          "internalType": "string",
          "name": "_gender",
          "type": "string"
        }
      ],
      "name": "addPatient",
      "outputs": [],
      "stateMutability": "nonpayable",
      "type": "function"
    },
    {
      "inputs": [
        {
          "internalType": "address",
          "name": "_patientAddress",
          "type": "address"
        }
      ],
      "name": "getPatient",
      "outputs": [
        {
          "components": [
            {
              "internalType": "address",
              "name": "patientWallet",
              "type": "address"
            },
            {
              "internalType": "string",
              "name": "name",
              "type": "string"
            },
            {
              "internalType": "uint256",
              "name": "id",
              "type": "uint256"
            },
            {
              "internalType": "uint256",
              "name": "age",
              "type": "uint256"
            },
            {
              "internalType": "string",
              "name": "gender",
              "type": "string"
            },
            {
              "internalType": "address[]",
              "name": "authorizedDoctors",
              "type": "address[]"
            },
            {
              "internalType": "address[]",
              "name": "doctorsRequests",
              "type": "address[]"
            },
            {
              "internalType": "address[]",
              "name": "pendingRequests",
              "type": "address[]"
            }
          ],
          "internalType": "struct Receptionist.Patient",
          "name": "",
          "type": "tuple"
        }
      ],
      "stateMutability": "view",
      "type": "function",
      "constant": true
    },
    {
      "inputs": [
        {
          "internalType": "address",
          "name": "_patientAddress",
          "type": "address"
        }
      ],
      "name": "isPatient",
      "outputs": [
        {
          "internalType": "bool",
          "name": "",
          "type": "bool"
        }
      ],
      "stateMutability": "view",
      "type": "function",
      "constant": true
    },
    {
      "inputs": [
        {
          "internalType": "uint256",
          "name": "id",
          "type": "uint256"
        }
      ],
      "name": "Search",
      "outputs": [
        {
          "components": [
            {
              "internalType": "address",
              "name": "patientWallet",
              "type": "address"
            },
            {
              "internalType": "string",
              "name": "name",
              "type": "string"
            },
            {
              "internalType": "uint256",
              "name": "id",
              "type": "uint256"
            },
            {
              "internalType": "uint256",
              "name": "age",
              "type": "uint256"
            },
            {
              "internalType": "string",
              "name": "gender",
              "type": "string"
            },
            {
              "internalType": "address[]",
              "name": "authorizedDoctors",
              "type": "address[]"
            },
            {
              "internalType": "address[]",
              "name": "doctorsRequests",
              "type": "address[]"
            },
            {
              "internalType": "address[]",
              "name": "pendingRequests",
              "type": "address[]"
            }
          ],
          "internalType": "struct Receptionist.Patient",
          "name": "",
          "type": "tuple"
        }
      ],
      "stateMutability": "view",
      "type": "function",
      "constant": true
    },
    {
      "inputs": [
        {
          "internalType": "address[]",
          "name": "addressArray",
          "type": "address[]"
        }
      ],
      "name": "getPatientsList",
      "outputs": [
        {
          "components": [
            {
              "internalType": "address",
              "name": "patientWallet",
              "type": "address"
            },
            {
              "internalType": "string",
              "name": "name",
              "type": "string"
            },
            {
              "internalType": "uint256",
              "name": "id",
              "type": "uint256"
            },
            {
              "internalType": "uint256",
              "name": "age",
              "type": "uint256"
            },
            {
              "internalType": "string",
              "name": "gender",
              "type": "string"
            },
            {
              "internalType": "address[]",
              "name": "authorizedDoctors",
              "type": "address[]"
            },
            {
              "internalType": "address[]",
              "name": "doctorsRequests",
              "type": "address[]"
            },
            {
              "internalType": "address[]",
              "name": "pendingRequests",
              "type": "address[]"
            }
          ],
          "internalType": "struct Receptionist.Patient[]",
          "name": "",
          "type": "tuple[]"
        }
      ],
      "stateMutability": "view",
      "type": "function",
      "constant": true
    },
    {
      "inputs": [
        {
          "internalType": "address",
          "name": "patient",
          "type": "address"
        },
        {
          "internalType": "address",
          "name": "doctor",
          "type": "address"
        }
      ],
      "name": "gotAccepted",
      "outputs": [],
      "stateMutability": "nonpayable",
      "type": "function"
    },
    {
      "inputs": [
        {
          "internalType": "address",
          "name": "patient",
          "type": "address"
        },
        {
          "internalType": "address",
          "name": "doctor",
          "type": "address"
        }
      ],
      "name": "gotRejected",
      "outputs": [],
      "stateMutability": "nonpayable",
      "type": "function"
    },
    {
      "inputs": [
        {
          "internalType": "address",
          "name": "doctor",
          "type": "address"
        },
        {
          "internalType": "address",
          "name": "patient",
          "type": "address"
        }
      ],
      "name": "doctorWithdrew",
      "outputs": [],
      "stateMutability": "nonpayable",
      "type": "function"
    },
    {
      "inputs": [
        {
          "internalType": "address",
          "name": "_doctor",
          "type": "address"
        },
        {
          "internalType": "address",
          "name": "_patient",
          "type": "address"
        }
      ],
      "name": "accessRequest",
      "outputs": [],
      "stateMutability": "nonpayable",
      "type": "function"
    }
  ],
  "bytecode": "0x608060405234801561001057600080fd5b50612c68806100206000396000f3fe608060405234801561001057600080fd5b50600436106100b45760003560e01c8063c7da209f11610071578063c7da209f146101b1578063f12ccb89146101cd578063f20957ab146101fd578063f8f3f38214610219578063ff1d6cad14610249578063ff37f8b814610265576100b4565b80633f3dbc57146100b9578063412b15b2146100d55780637b6437a2146100f15780638f9c79ed146101215780639a11860f14610151578063b5368e2014610181575b600080fd5b6100d360048036038101906100ce91906120db565b610281565b005b6100ef60048036038101906100ea919061209f565b61037f565b005b61010b6004803603810190610106919061225a565b6104a9565b604051610118919061274f565b60405180910390f35b61013b60048036038101906101369190612076565b6107b1565b60405161014891906127b5565b60405180910390f35b61016b60048036038101906101669190612219565b61088d565b6040516101789190612771565b60405180910390f35b61019b60048036038101906101969190612076565b610d3e565b6040516101a891906127f0565b60405180910390f35b6101cb60048036038101906101c6919061209f565b6110d0565b005b6101e760048036038101906101e291906122ae565b61129d565b6040516101f491906127f0565b60405180910390f35b6102176004803603810190610212919061209f565b6116d4565b005b610233600480360381019061022e9190612076565b6117fe565b6040516102409190612793565b60405180910390f35b610263600480360381019061025e9190612186565b611a5c565b005b61027f600480360381019061027a919061209f565b611d1f565b005b600042905060006040518060800160405280868152602001858152602001838152602001848152509050600260008773ffffffffffffffffffffffffffffffffffffffff1673ffffffffffffffffffffffffffffffffffffffff1681526020019081526020016000208190806001815401808255809150506001900390600052602060002090600402016000909190919091506000820151816000019080519060200190610330929190611dc6565b50602082015181600101908051906020019061034d929190611dc6565b50604082015181600201556060820151816003019080519060200190610374929190611dc6565b505050505050505050565b61044f600160008473ffffffffffffffffffffffffffffffffffffffff1673ffffffffffffffffffffffffffffffffffffffff16815260200190815260200160002060070180548060200260200160405190810160405280929190818152602001828054801561044457602002820191906000526020600020905b8160009054906101000a900473ffffffffffffffffffffffffffffffffffffffff1673ffffffffffffffffffffffffffffffffffffffff16815260200190600101908083116103fa575b5050505050826104a9565b600160008473ffffffffffffffffffffffffffffffffffffffff1673ffffffffffffffffffffffffffffffffffffffff16815260200190815260200160002060070190805190602001906104a4929190611e4c565b505050565b606060008351905060008060005b83811015610552578573ffffffffffffffffffffffffffffffffffffffff1687828151811061050f577f4e487b7100000000000000000000000000000000000000000000000000000000600052603260045260246000fd5b602002602001015173ffffffffffffffffffffffffffffffffffffffff16141561053f5780925060019150610552565b808061054a90612af4565b9150506104b7565b5080610563578593505050506107ab565b600060018461057291906129d3565b67ffffffffffffffff8111156105b1577f4e487b7100000000000000000000000000000000000000000000000000000000600052604160045260246000fd5b6040519080825280602002602001820160405280156105df5781602001602082028036833780820191505090505b50905060005b838110156106b457878181518110610626577f4e487b7100000000000000000000000000000000000000000000000000000000600052603260045260246000fd5b6020026020010151828281518110610667577f4e487b7100000000000000000000000000000000000000000000000000000000600052603260045260246000fd5b602002602001019073ffffffffffffffffffffffffffffffffffffffff16908173ffffffffffffffffffffffffffffffffffffffff168152505080806106ac90612af4565b9150506105e5565b5060006001846106c4919061297d565b90505b848110156107a257878181518110610708577f4e487b7100000000000000000000000000000000000000000000000000000000600052603260045260246000fd5b60200260200101518260018361071e91906129d3565b81518110610755577f4e487b7100000000000000000000000000000000000000000000000000000000600052603260045260246000fd5b602002602001019073ffffffffffffffffffffffffffffffffffffffff16908173ffffffffffffffffffffffffffffffffffffffff1681525050808061079a90612af4565b9150506106c7565b50809450505050505b92915050565b600080600090505b600080549050811015610882578273ffffffffffffffffffffffffffffffffffffffff1660008281548110610817577f4e487b7100000000000000000000000000000000000000000000000000000000600052603260045260246000fd5b906000526020600020906008020160000160009054906101000a900473ffffffffffffffffffffffffffffffffffffffff1673ffffffffffffffffffffffffffffffffffffffff16141561086f576001915050610888565b808061087a90612af4565b9150506107b9565b50600090505b919050565b60606000825167ffffffffffffffff8111156108d2577f4e487b7100000000000000000000000000000000000000000000000000000000600052604160045260246000fd5b60405190808252806020026020018201604052801561090b57816020015b6108f8611ed6565b8152602001906001900390816108f05790505b50905060005b8351811015610d345760016000858381518110610957577f4e487b7100000000000000000000000000000000000000000000000000000000600052603260045260246000fd5b602002602001015173ffffffffffffffffffffffffffffffffffffffff1673ffffffffffffffffffffffffffffffffffffffff168152602001908152602001600020604051806101000160405290816000820160009054906101000a900473ffffffffffffffffffffffffffffffffffffffff1673ffffffffffffffffffffffffffffffffffffffff1673ffffffffffffffffffffffffffffffffffffffff168152602001600182018054610a0b90612a91565b80601f0160208091040260200160405190810160405280929190818152602001828054610a3790612a91565b8015610a845780601f10610a5957610100808354040283529160200191610a84565b820191906000526020600020905b815481529060010190602001808311610a6757829003601f168201915b505050505081526020016002820154815260200160038201548152602001600482018054610ab190612a91565b80601f0160208091040260200160405190810160405280929190818152602001828054610add90612a91565b8015610b2a5780601f10610aff57610100808354040283529160200191610b2a565b820191906000526020600020905b815481529060010190602001808311610b0d57829003601f168201915b5050505050815260200160058201805480602002602001604051908101604052809291908181526020018280548015610bb857602002820191906000526020600020905b8160009054906101000a900473ffffffffffffffffffffffffffffffffffffffff1673ffffffffffffffffffffffffffffffffffffffff1681526020019060010190808311610b6e575b5050505050815260200160068201805480602002602001604051908101604052809291908181526020018280548015610c4657602002820191906000526020600020905b8160009054906101000a900473ffffffffffffffffffffffffffffffffffffffff1673ffffffffffffffffffffffffffffffffffffffff1681526020019060010190808311610bfc575b5050505050815260200160078201805480602002602001604051908101604052809291908181526020018280548015610cd457602002820191906000526020600020905b8160009054906101000a900473ffffffffffffffffffffffffffffffffffffffff1673ffffffffffffffffffffffffffffffffffffffff1681526020019060010190808311610c8a575b505050505081525050828281518110610d16577f4e487b7100000000000000000000000000000000000000000000000000000000600052603260045260246000fd5b60200260200101819052508080610d2c90612af4565b915050610911565b5080915050919050565b610d46611ed6565b600160008373ffffffffffffffffffffffffffffffffffffffff1673ffffffffffffffffffffffffffffffffffffffff168152602001908152602001600020604051806101000160405290816000820160009054906101000a900473ffffffffffffffffffffffffffffffffffffffff1673ffffffffffffffffffffffffffffffffffffffff1673ffffffffffffffffffffffffffffffffffffffff168152602001600182018054610df790612a91565b80601f0160208091040260200160405190810160405280929190818152602001828054610e2390612a91565b8015610e705780601f10610e4557610100808354040283529160200191610e70565b820191906000526020600020905b815481529060010190602001808311610e5357829003601f168201915b505050505081526020016002820154815260200160038201548152602001600482018054610e9d90612a91565b80601f0160208091040260200160405190810160405280929190818152602001828054610ec990612a91565b8015610f165780601f10610eeb57610100808354040283529160200191610f16565b820191906000526020600020905b815481529060010190602001808311610ef957829003601f168201915b5050505050815260200160058201805480602002602001604051908101604052809291908181526020018280548015610fa457602002820191906000526020600020905b8160009054906101000a900473ffffffffffffffffffffffffffffffffffffffff1673ffffffffffffffffffffffffffffffffffffffff1681526020019060010190808311610f5a575b505050505081526020016006820180548060200260200160405190810160405280929190818152602001828054801561103257602002820191906000526020600020905b8160009054906101000a900473ffffffffffffffffffffffffffffffffffffffff1673ffffffffffffffffffffffffffffffffffffffff1681526020019060010190808311610fe8575b50505050508152602001600782018054806020026020016040519081016040528092919081815260200182805480156110c057602002820191906000526020600020905b8160009054906101000a900473ffffffffffffffffffffffffffffffffffffffff1673ffffffffffffffffffffffffffffffffffffffff1681526020019060010190808311611076575b5050505050815250509050919050565b600160008373ffffffffffffffffffffffffffffffffffffffff1673ffffffffffffffffffffffffffffffffffffffff168152602001908152602001600020600501819080600181540180825580915050600190039060005260206000200160009091909190916101000a81548173ffffffffffffffffffffffffffffffffffffffff021916908373ffffffffffffffffffffffffffffffffffffffff160217905550611243600160008473ffffffffffffffffffffffffffffffffffffffff1673ffffffffffffffffffffffffffffffffffffffff16815260200190815260200160002060070180548060200260200160405190810160405280929190818152602001828054801561123857602002820191906000526020600020905b8160009054906101000a900473ffffffffffffffffffffffffffffffffffffffff1673ffffffffffffffffffffffffffffffffffffffff16815260200190600101908083116111ee575b5050505050826104a9565b600160008473ffffffffffffffffffffffffffffffffffffffff1673ffffffffffffffffffffffffffffffffffffffff1681526020019081526020016000206007019080519060200190611298929190611e4c565b505050565b6112a5611ed6565b600082116112e8576040517f08c379a00000000000000000000000000000000000000000000000000000000081526004016112df906127d0565b60405180910390fd5b60006001836112f791906129d3565b90506000805490508110611340576040517f08c379a0000000000000000000000000000000000000000000000000000000008152600401611337906127d0565b60405180910390fd5b6000818154811061137a577f4e487b7100000000000000000000000000000000000000000000000000000000600052603260045260246000fd5b9060005260206000209060080201604051806101000160405290816000820160009054906101000a900473ffffffffffffffffffffffffffffffffffffffff1673ffffffffffffffffffffffffffffffffffffffff1673ffffffffffffffffffffffffffffffffffffffff1681526020016001820180546113fa90612a91565b80601f016020809104026020016040519081016040528092919081815260200182805461142690612a91565b80156114735780601f1061144857610100808354040283529160200191611473565b820191906000526020600020905b81548152906001019060200180831161145657829003601f168201915b5050505050815260200160028201548152602001600382015481526020016004820180546114a090612a91565b80601f01602080910402602001604051908101604052809291908181526020018280546114cc90612a91565b80156115195780601f106114ee57610100808354040283529160200191611519565b820191906000526020600020905b8154815290600101906020018083116114fc57829003601f168201915b50505050508152602001600582018054806020026020016040519081016040528092919081815260200182805480156115a757602002820191906000526020600020905b8160009054906101000a900473ffffffffffffffffffffffffffffffffffffffff1673ffffffffffffffffffffffffffffffffffffffff168152602001906001019080831161155d575b505050505081526020016006820180548060200260200160405190810160405280929190818152602001828054801561163557602002820191906000526020600020905b8160009054906101000a900473ffffffffffffffffffffffffffffffffffffffff1673ffffffffffffffffffffffffffffffffffffffff16815260200190600101908083116115eb575b50505050508152602001600782018054806020026020016040519081016040528092919081815260200182805480156116c357602002820191906000526020600020905b8160009054906101000a900473ffffffffffffffffffffffffffffffffffffffff1673ffffffffffffffffffffffffffffffffffffffff1681526020019060010190808311611679575b505050505081525050915050919050565b6117a4600160008373ffffffffffffffffffffffffffffffffffffffff1673ffffffffffffffffffffffffffffffffffffffff16815260200190815260200160002060060180548060200260200160405190810160405280929190818152602001828054801561179957602002820191906000526020600020905b8160009054906101000a900473ffffffffffffffffffffffffffffffffffffffff1673ffffffffffffffffffffffffffffffffffffffff168152602001906001019080831161174f575b5050505050836104a9565b600160008373ffffffffffffffffffffffffffffffffffffffff1673ffffffffffffffffffffffffffffffffffffffff16815260200190815260200160002060060190805190602001906117f9929190611e4c565b505050565b6060600260008373ffffffffffffffffffffffffffffffffffffffff1673ffffffffffffffffffffffffffffffffffffffff168152602001908152602001600020805480602002602001604051908101604052809291908181526020016000905b82821015611a51578382906000526020600020906004020160405180608001604052908160008201805461189290612a91565b80601f01602080910402602001604051908101604052809291908181526020018280546118be90612a91565b801561190b5780601f106118e05761010080835404028352916020019161190b565b820191906000526020600020905b8154815290600101906020018083116118ee57829003601f168201915b5050505050815260200160018201805461192490612a91565b80601f016020809104026020016040519081016040528092919081815260200182805461195090612a91565b801561199d5780601f106119725761010080835404028352916020019161199d565b820191906000526020600020905b81548152906001019060200180831161198057829003601f168201915b50505050508152602001600282015481526020016003820180546119c090612a91565b80601f01602080910402602001604051908101604052809291908181526020018280546119ec90612a91565b8015611a395780601f10611a0e57610100808354040283529160200191611a39565b820191906000526020600020905b815481529060010190602001808311611a1c57829003601f168201915b5050505050815250508152602001906001019061185f565b505050509050919050565b606080606060006001600080549050611a75919061297d565b905060006040518061010001604052808a73ffffffffffffffffffffffffffffffffffffffff16815260200189815260200183815260200188815260200187815260200186815260200185815260200184815250905080600160008b73ffffffffffffffffffffffffffffffffffffffff1673ffffffffffffffffffffffffffffffffffffffff16815260200190815260200160002060008201518160000160006101000a81548173ffffffffffffffffffffffffffffffffffffffff021916908373ffffffffffffffffffffffffffffffffffffffff1602179055506020820151816001019080519060200190611b6e929190611dc6565b5060408201518160020155606082015181600301556080820151816004019080519060200190611b9f929190611dc6565b5060a0820151816005019080519060200190611bbc929190611e4c565b5060c0820151816006019080519060200190611bd9929190611e4c565b5060e0820151816007019080519060200190611bf6929190611e4c565b50905050600081908060018154018082558091505060019003906000526020600020906008020160009091909190915060008201518160000160006101000a81548173ffffffffffffffffffffffffffffffffffffffff021916908373ffffffffffffffffffffffffffffffffffffffff1602179055506020820151816001019080519060200190611c89929190611dc6565b5060408201518160020155606082015181600301556080820151816004019080519060200190611cba929190611dc6565b5060a0820151816005019080519060200190611cd7929190611e4c565b5060c0820151816006019080519060200190611cf4929190611e4c565b5060e0820151816007019080519060200190611d11929190611e4c565b505050505050505050505050565b600160008273ffffffffffffffffffffffffffffffffffffffff1673ffffffffffffffffffffffffffffffffffffffff168152602001908152602001600020600601829080600181540180825580915050600190039060005260206000200160009091909190916101000a81548173ffffffffffffffffffffffffffffffffffffffff021916908373ffffffffffffffffffffffffffffffffffffffff1602179055505050565b828054611dd290612a91565b90600052602060002090601f016020900481019282611df45760008555611e3b565b82601f10611e0d57805160ff1916838001178555611e3b565b82800160010185558215611e3b579182015b82811115611e3a578251825591602001919060010190611e1f565b5b509050611e489190611f31565b5090565b828054828255906000526020600020908101928215611ec5579160200282015b82811115611ec45782518260006101000a81548173ffffffffffffffffffffffffffffffffffffffff021916908373ffffffffffffffffffffffffffffffffffffffff16021790555091602001919060010190611e6c565b5b509050611ed29190611f31565b5090565b604051806101000160405280600073ffffffffffffffffffffffffffffffffffffffff168152602001606081526020016000815260200160008152602001606081526020016060815260200160608152602001606081525090565b5b80821115611f4a576000816000905550600101611f32565b5090565b6000611f61611f5c84612837565b612812565b90508083825260208201905082856020860282011115611f8057600080fd5b60005b85811015611fb05781611f968882611ff8565b845260208401935060208301925050600181019050611f83565b5050509392505050565b6000611fcd611fc884612863565b612812565b905082815260208101848484011115611fe557600080fd5b611ff0848285612a4f565b509392505050565b60008135905061200781612c04565b92915050565b600082601f83011261201e57600080fd5b813561202e848260208601611f4e565b91505092915050565b600082601f83011261204857600080fd5b8135612058848260208601611fba565b91505092915050565b60008135905061207081612c1b565b92915050565b60006020828403121561208857600080fd5b600061209684828501611ff8565b91505092915050565b600080604083850312156120b257600080fd5b60006120c085828601611ff8565b92505060206120d185828601611ff8565b9150509250929050565b600080600080608085870312156120f157600080fd5b60006120ff87828801611ff8565b945050602085013567ffffffffffffffff81111561211c57600080fd5b61212887828801612037565b935050604085013567ffffffffffffffff81111561214557600080fd5b61215187828801612037565b925050606085013567ffffffffffffffff81111561216e57600080fd5b61217a87828801612037565b91505092959194509250565b6000806000806080858703121561219c57600080fd5b60006121aa87828801611ff8565b945050602085013567ffffffffffffffff8111156121c757600080fd5b6121d387828801612037565b93505060406121e487828801612061565b925050606085013567ffffffffffffffff81111561220157600080fd5b61220d87828801612037565b91505092959194509250565b60006020828403121561222b57600080fd5b600082013567ffffffffffffffff81111561224557600080fd5b6122518482850161200d565b91505092915050565b6000806040838503121561226d57600080fd5b600083013567ffffffffffffffff81111561228757600080fd5b6122938582860161200d565b92505060206122a485828601611ff8565b9150509250929050565b6000602082840312156122c057600080fd5b60006122ce84828501612061565b91505092915050565b60006122e38383612317565b60208301905092915050565b60006122fb8383612537565b905092915050565b600061230f83836126cf565b905092915050565b61232081612a07565b82525050565b6000612331826128c4565b61233b8185612917565b935061234683612894565b8060005b8381101561237757815161235e88826122d7565b9750612369836128f0565b92505060018101905061234a565b5085935050505092915050565b600061238f826128c4565b6123998185612928565b93506123a483612894565b8060005b838110156123d55781516123bc88826122d7565b97506123c7836128f0565b9250506001810190506123a8565b5085935050505092915050565b60006123ed826128cf565b6123f78185612939565b935083602082028501612409856128a4565b8060005b85811015612445578484038952815161242685826122ef565b9450612431836128fd565b925060208a0199505060018101905061240d565b50829750879550505050505092915050565b6000612462826128da565b61246c818561294a565b93508360208202850161247e856128b4565b8060005b858110156124ba578484038952815161249b8582612303565b94506124a68361290a565b925060208a01995050600181019050612482565b50829750879550505050505092915050565b6124d581612a19565b82525050565b60006124e6826128e5565b6124f0818561295b565b9350612500818560208601612a5e565b61250981612bca565b840191505092915050565b6000612521600a8361296c565b915061252c82612bdb565b602082019050919050565b6000610100830160008301516125506000860182612317565b506020830151848203602086015261256882826124db565b915050604083015161257d6040860182612740565b5060608301516125906060860182612740565b50608083015184820360808601526125a882826124db565b91505060a083015184820360a08601526125c28282612326565b91505060c083015184820360c08601526125dc8282612326565b91505060e083015184820360e08601526125f68282612326565b9150508091505092915050565b60006101008301600083015161261c6000860182612317565b506020830151848203602086015261263482826124db565b91505060408301516126496040860182612740565b50606083015161265c6060860182612740565b506080830151848203608086015261267482826124db565b91505060a083015184820360a086015261268e8282612326565b91505060c083015184820360c08601526126a88282612326565b91505060e083015184820360e08601526126c28282612326565b9150508091505092915050565b600060808301600083015184820360008601526126ec82826124db565b9150506020830151848203602086015261270682826124db565b915050604083015161271b6040860182612740565b506060830151848203606086015261273382826124db565b9150508091505092915050565b61274981612a45565b82525050565b600060208201905081810360008301526127698184612384565b905092915050565b6000602082019050818103600083015261278b81846123e2565b905092915050565b600060208201905081810360008301526127ad8184612457565b905092915050565b60006020820190506127ca60008301846124cc565b92915050565b600060208201905081810360008301526127e981612514565b9050919050565b6000602082019050818103600083015261280a8184612603565b905092915050565b600061281c61282d565b90506128288282612ac3565b919050565b6000604051905090565b600067ffffffffffffffff82111561285257612851612b9b565b5b602082029050602081019050919050565b600067ffffffffffffffff82111561287e5761287d612b9b565b5b61288782612bca565b9050602081019050919050565b6000819050602082019050919050565b6000819050602082019050919050565b6000819050602082019050919050565b600081519050919050565b600081519050919050565b600081519050919050565b600081519050919050565b6000602082019050919050565b6000602082019050919050565b6000602082019050919050565b600082825260208201905092915050565b600082825260208201905092915050565b600082825260208201905092915050565b600082825260208201905092915050565b600082825260208201905092915050565b600082825260208201905092915050565b600061298882612a45565b915061299383612a45565b9250827fffffffffffffffffffffffffffffffffffffffffffffffffffffffffffffffff038211156129c8576129c7612b3d565b5b828201905092915050565b60006129de82612a45565b91506129e983612a45565b9250828210156129fc576129fb612b3d565b5b828203905092915050565b6000612a1282612a25565b9050919050565b60008115159050919050565b600073ffffffffffffffffffffffffffffffffffffffff82169050919050565b6000819050919050565b82818337600083830152505050565b60005b83811015612a7c578082015181840152602081019050612a61565b83811115612a8b576000848401525b50505050565b60006002820490506001821680612aa957607f821691505b60208210811415612abd57612abc612b6c565b5b50919050565b612acc82612bca565b810181811067ffffffffffffffff82111715612aeb57612aea612b9b565b5b80604052505050565b6000612aff82612a45565b91507fffffffffffffffffffffffffffffffffffffffffffffffffffffffffffffffff821415612b3257612b31612b3d565b5b600182019050919050565b7f4e487b7100000000000000000000000000000000000000000000000000000000600052601160045260246000fd5b7f4e487b7100000000000000000000000000000000000000000000000000000000600052602260045260246000fd5b7f4e487b7100000000000000000000000000000000000000000000000000000000600052604160045260246000fd5b6000601f19601f8301169050919050565b7f696e76616c696420494400000000000000000000000000000000000000000000600082015250565b612c0d81612a07565b8114612c1857600080fd5b50565b612c2481612a45565b8114612c2f57600080fd5b5056fea264697066735822122058acad9e8cd3bac74d405959735b9800cfcc106afd9e271843e28ac60b5eeb7264736f6c63430008020033",
  "immutableReferences": {},
  "source": "// SPDX-License-Identifier: MIT\npragma solidity ^0.8.2;\npragma experimental ABIEncoderV2;\n\ncontract Receptionist{\n\n    struct Prescription{\n        string from;\n        string to;\n        uint date;\n        string medicines;\n    }\n    struct Patient{\n        address patientWallet;\n        string name;\n        uint id;\n        uint age;  \n        string gender;\n        address[] authorizedDoctors;\n        address[] doctorsRequests; \n        address[] pendingRequests;\n    }\n\n\n    Patient[] Patients;\n    mapping(address => Patient) patients;\n    \n    mapping (address => Prescription[]) prescriptions;\n\n\n\n\n\n    \n\n    // this is a helper function that removes an address from an array of addresses and returns the new array\n    function removeAddressFromArray(address[] memory addressesArray, address addressToRemove) public pure returns (address[] memory) {\n        uint length = addressesArray.length;\n        uint indexToRemove = 0;\n        bool found = false;\n\n        // Find the index of the address to remove\n        for (uint i = 0; i < length; i++) {\n            if (addressesArray[i] == addressToRemove) {\n                indexToRemove = i;\n                found = true;\n                break;\n            }\n        }\n\n        // If the address is not found, return the original array\n        if (!found) {\n            return addressesArray;\n        }\n\n        // Create a new array to hold the result\n        address[] memory newArray = new address[](length - 1);\n\n        // Copy elements from the original array to the new array, excluding the address to remove\n        for (uint i = 0; i < indexToRemove; i++) {\n            newArray[i] = addressesArray[i];\n        }\n        for (uint i = indexToRemove + 1; i < length; i++) {\n            newArray[i - 1] = addressesArray[i];\n        }\n\n        return newArray;\n    }\n\n\n    function setPrescription(address patientAddress, string memory _from, string memory _to, string memory _medicines) public{\n        uint _date = block.timestamp;\n        Prescription memory newPrescription = Prescription(_from, _to, _date, _medicines);\n        prescriptions[patientAddress].push(newPrescription);\n    }\n\n    function getPrescriptions(address patientAddress) public view returns (Prescription[] memory){\n        return prescriptions[patientAddress];\n    }\n\n\n\n    //function to add a new patient\n    function addPatient(address _patientAddress, string memory _name, uint _age, string memory _gender) public {\n        address[] memory _authorizedDoctors;\n        address[] memory _doctorsRequests; \n        address[] memory _pendingRequests; \n        uint _id = Patients.length + 1; // first id will be 1\n        Patient memory newPatient = Patient({\n            patientWallet: _patientAddress,\n            name: _name,\n            id: _id,\n            age: _age,\n            gender: _gender,\n            authorizedDoctors: _authorizedDoctors,\n            doctorsRequests: _doctorsRequests,\n            pendingRequests: _pendingRequests\n        });\n        patients[_patientAddress] = newPatient;\n        Patients.push(newPatient);\n    }\n\n    function getPatient(address _patientAddress) public view returns(Patient memory){\n        return(patients[_patientAddress]);\n    }\n\n    function isPatient(address _patientAddress) public view returns (bool){\n        for(uint i=0; i<Patients.length; i++){\n            if (Patients[i].patientWallet == _patientAddress){\n                return true;\n            }\n        }\n        return false;\n    }\n\n\n    modifier OnlyPatient(address _targetAddress){\n        require(isPatient(_targetAddress),'User is not a patient!');\n        _;\n    }\n\n\n    // function to get a patient by his id\n    function Search(uint id) public view returns (Patient memory) {\n        require(id > 0,'invalid ID');\n        uint index = id-1;\n        require(index < Patients.length, 'invalid ID');\n        return Patients[index];\n    }\n\n\n\n    //function to get the array of patients from the array of their addresses\n    function getPatientsList(address[] memory addressArray) public view returns(Patient[] memory){\n        Patient[] memory patientsList = new Patient[](addressArray.length);\n        for (uint i=0; i<addressArray.length; i++){\n            patientsList[i] = patients[addressArray[i]];\n        }\n        return patientsList;\n    }\n    \n\n\n    //function executes whenever a patient gets accepted by a doctor\n    function gotAccepted(address patient, address doctor) public{\n        patients[patient].authorizedDoctors.push(doctor);\n        patients[patient].pendingRequests = removeAddressFromArray(patients[patient].pendingRequests, doctor);\n    }\n\n\n    function gotRejected(address patient, address doctor) public{\n        patients[patient].pendingRequests = removeAddressFromArray(patients[patient].pendingRequests, doctor);\n    }\n\n    //function to execute when a doctor withdraws his request\n    function doctorWithdrew(address doctor, address patient) public{\n        patients[patient].doctorsRequests = removeAddressFromArray(patients[patient].doctorsRequests, doctor);\n    }\n\n    //function to execute when a doctor asks for permission\n    function accessRequest(address _doctor, address _patient) public{\n        patients[_patient].doctorsRequests.push(_doctor);\n    }\n    \n}",
  "sourcePath": "/home/amine/Downloads/2_eme/S2/PCD/projet/truffle/contracts/Receptionist.sol",
  "compiler": {
    "name": "solc",
    "version": "0.8.2+commit.661d1103.Emscripten.clang"
  },
  "schemaVersion": "3.4.16",
  "updatedAt": "2024-05-06T15:26:15.391Z",
  "networkType": "ethereum",
  "devdoc": {
    "kind": "dev",
    "methods": {},
    "version": 1
  },
  "userdoc": {
    "kind": "user",
    "methods": {},
    "version": 1
  }
}